{
    "contractName": "ACE",
    "abi": [
        {
            "constant": true,
            "inputs": [],
            "name": "JOIN_SPLIT_PROOF",
            "outputs": [
                {
                    "name": "",
                    "type": "uint24"
                }
            ],
            "payable": false,
            "stateMutability": "view",
            "type": "function"
        },
        {
            "constant": true,
            "inputs": [],
            "name": "ZERO_VALUE_NOTE_HASH",
            "outputs": [
                {
                    "name": "",
                    "type": "bytes32"
                }
            ],
            "payable": false,
            "stateMutability": "view",
            "type": "function"
        },
        {
            "constant": false,
            "inputs": [
                {
                    "name": "_value",
                    "type": "uint256"
                }
            ],
            "name": "supplementTokens",
            "outputs": [],
            "payable": false,
            "stateMutability": "nonpayable",
            "type": "function"
        },
        {
            "constant": true,
            "inputs": [
                {
                    "name": "",
                    "type": "uint256"
                },
                {
                    "name": "",
                    "type": "uint256"
                },
                {
                    "name": "",
                    "type": "uint256"
                }
            ],
            "name": "disabledValidators",
            "outputs": [
                {
                    "name": "",
                    "type": "bool"
                }
            ],
            "payable": false,
            "stateMutability": "view",
            "type": "function"
        },
        {
            "constant": true,
            "inputs": [],
            "name": "PRIVATE_RANGE_PROOF",
            "outputs": [
                {
                    "name": "",
                    "type": "uint24"
                }
            ],
            "payable": false,
            "stateMutability": "view",
            "type": "function"
        },
        {
            "constant": true,
            "inputs": [
                {
                    "name": "",
                    "type": "uint256"
                },
                {
                    "name": "",
                    "type": "uint256"
                },
                {
                    "name": "",
                    "type": "uint256"
                }
            ],
            "name": "validators",
            "outputs": [
                {
                    "name": "",
                    "type": "address"
                }
            ],
            "payable": false,
            "stateMutability": "view",
            "type": "function"
        },
        {
            "constant": false,
            "inputs": [],
            "name": "renounceOwnership",
            "outputs": [],
            "payable": false,
            "stateMutability": "nonpayable",
            "type": "function"
        },
        {
            "constant": true,
            "inputs": [],
            "name": "DIVIDEND_PROOF",
            "outputs": [
                {
                    "name": "",
                    "type": "uint24"
                }
            ],
            "payable": false,
            "stateMutability": "view",
            "type": "function"
        },
        {
            "constant": true,
            "inputs": [],
            "name": "owner",
            "outputs": [
                {
                    "name": "",
                    "type": "address"
                }
            ],
            "payable": false,
            "stateMutability": "view",
            "type": "function"
        },
        {
            "constant": true,
            "inputs": [],
            "name": "MINT_PROOF",
            "outputs": [
                {
                    "name": "",
                    "type": "uint24"
                }
            ],
            "payable": false,
            "stateMutability": "view",
            "type": "function"
        },
        {
            "constant": true,
            "inputs": [],
            "name": "isOwner",
            "outputs": [
                {
                    "name": "",
                    "type": "bool"
                }
            ],
            "payable": false,
            "stateMutability": "view",
            "type": "function"
        },
        {
            "constant": false,
            "inputs": [
                {
                    "name": "_proof",
                    "type": "uint24"
                },
                {
                    "name": "_proofOutput",
                    "type": "bytes"
                },
                {
                    "name": "_proofSender",
                    "type": "address"
                }
            ],
            "name": "updateNoteRegistry",
            "outputs": [],
            "payable": false,
            "stateMutability": "nonpayable",
            "type": "function"
        },
        {
            "constant": true,
            "inputs": [],
            "name": "latestEpoch",
            "outputs": [
                {
                    "name": "",
                    "type": "uint8"
                }
            ],
            "payable": false,
            "stateMutability": "view",
            "type": "function"
        },
        {
            "constant": false,
            "inputs": [
                {
                    "name": "_linkedTokenAddress",
                    "type": "address"
                },
                {
                    "name": "_scalingFactor",
                    "type": "uint256"
                },
                {
                    "name": "_canAdjustSupply",
                    "type": "bool"
                },
                {
                    "name": "_canConvert",
                    "type": "bool"
                }
            ],
            "name": "createNoteRegistry",
            "outputs": [],
            "payable": false,
            "stateMutability": "nonpayable",
            "type": "function"
        },
        {
            "constant": true,
            "inputs": [
                {
                    "name": "",
                    "type": "bytes32"
                }
            ],
            "name": "validatedProofs",
            "outputs": [
                {
                    "name": "",
                    "type": "bool"
                }
            ],
            "payable": false,
            "stateMutability": "view",
            "type": "function"
        },
        {
            "constant": true,
            "inputs": [],
            "name": "BURN_PROOF",
            "outputs": [
                {
                    "name": "",
                    "type": "uint24"
                }
            ],
            "payable": false,
            "stateMutability": "view",
            "type": "function"
        },
        {
            "constant": false,
            "inputs": [
                {
                    "name": "_registryOwner",
                    "type": "address"
                },
                {
                    "name": "_proofHash",
                    "type": "bytes32"
                },
                {
                    "name": "_value",
                    "type": "uint256"
                }
            ],
            "name": "publicApprove",
            "outputs": [],
            "payable": false,
            "stateMutability": "nonpayable",
            "type": "function"
        },
        {
            "constant": false,
            "inputs": [
                {
                    "name": "newOwner",
                    "type": "address"
                }
            ],
            "name": "transferOwnership",
            "outputs": [],
            "payable": false,
            "stateMutability": "nonpayable",
            "type": "function"
        },
        {
            "constant": true,
            "inputs": [
                {
                    "name": "_owner",
                    "type": "address"
                }
            ],
            "name": "getRegistry",
            "outputs": [
                {
                    "name": "linkedToken",
                    "type": "address"
                },
                {
                    "name": "scalingFactor",
                    "type": "uint256"
                },
                {
                    "name": "totalSupply",
                    "type": "uint256"
                },
                {
                    "name": "confidentialTotalMinted",
                    "type": "bytes32"
                },
                {
                    "name": "confidentialTotalBurned",
                    "type": "bytes32"
                },
                {
                    "name": "canConvert",
                    "type": "bool"
                },
                {
                    "name": "canAdjustSupply",
                    "type": "bool"
                }
            ],
            "payable": false,
            "stateMutability": "view",
            "type": "function"
        },
        {
            "constant": true,
            "inputs": [
                {
                    "name": "_registryOwner",
                    "type": "address"
                },
                {
                    "name": "_noteHash",
                    "type": "bytes32"
                }
            ],
            "name": "getNote",
            "outputs": [
                {
                    "name": "status",
                    "type": "uint8"
                },
                {
                    "name": "createdOn",
                    "type": "uint40"
                },
                {
                    "name": "destroyedOn",
                    "type": "uint40"
                },
                {
                    "name": "noteOwner",
                    "type": "address"
                }
            ],
            "payable": false,
            "stateMutability": "view",
            "type": "function"
        },
        {
            "inputs": [],
            "payable": false,
            "stateMutability": "nonpayable",
            "type": "constructor"
        },
        {
            "anonymous": false,
            "inputs": [
                {
                    "indexed": false,
                    "name": "_commonReferenceString",
                    "type": "bytes32[6]"
                }
            ],
            "name": "SetCommonReferenceString",
            "type": "event"
        },
        {
            "anonymous": false,
            "inputs": [
                {
                    "indexed": true,
                    "name": "epoch",
                    "type": "uint8"
                },
                {
                    "indexed": true,
                    "name": "category",
                    "type": "uint8"
                },
                {
                    "indexed": true,
                    "name": "id",
                    "type": "uint8"
                },
                {
                    "indexed": false,
                    "name": "validatorAddress",
                    "type": "address"
                }
            ],
            "name": "SetProof",
            "type": "event"
        },
        {
            "anonymous": false,
            "inputs": [
                {
                    "indexed": false,
                    "name": "newLatestEpoch",
                    "type": "uint8"
                }
            ],
            "name": "IncrementLatestEpoch",
            "type": "event"
        },
        {
            "anonymous": false,
            "inputs": [
                {
                    "indexed": false,
                    "name": "registryOwner",
                    "type": "address"
                },
                {
                    "indexed": false,
                    "name": "registryAddress",
                    "type": "address"
                },
                {
                    "indexed": false,
                    "name": "scalingFactor",
                    "type": "uint256"
                },
                {
                    "indexed": false,
                    "name": "linkedTokenAddress",
                    "type": "address"
                },
                {
                    "indexed": false,
                    "name": "canAdjustSupply",
                    "type": "bool"
                },
                {
                    "indexed": false,
                    "name": "canConvert",
                    "type": "bool"
                }
            ],
            "name": "CreateNoteRegistry",
            "type": "event"
        },
        {
            "anonymous": false,
            "inputs": [
                {
                    "indexed": true,
                    "name": "previousOwner",
                    "type": "address"
                },
                {
                    "indexed": true,
                    "name": "newOwner",
                    "type": "address"
                }
            ],
            "name": "OwnershipTransferred",
            "type": "event"
        },
        {
            "constant": false,
            "inputs": [
                {
                    "name": "_proof",
                    "type": "uint24"
                },
                {
                    "name": "_proofData",
                    "type": "bytes"
                },
                {
                    "name": "_proofSender",
                    "type": "address"
                }
            ],
            "name": "mint",
            "outputs": [
                {
                    "name": "",
                    "type": "bytes"
                }
            ],
            "payable": false,
            "stateMutability": "nonpayable",
            "type": "function"
        },
        {
            "constant": false,
            "inputs": [
                {
                    "name": "_proof",
                    "type": "uint24"
                },
                {
                    "name": "_proofData",
                    "type": "bytes"
                },
                {
                    "name": "_proofSender",
                    "type": "address"
                }
            ],
            "name": "burn",
            "outputs": [
                {
                    "name": "",
                    "type": "bytes"
                }
            ],
            "payable": false,
            "stateMutability": "nonpayable",
            "type": "function"
        },
        {
            "constant": false,
            "inputs": [
                {
                    "name": "_proof",
                    "type": "uint24"
                },
                {
                    "name": "_sender",
                    "type": "address"
                },
                {
                    "name": "",
                    "type": "bytes"
                }
            ],
            "name": "validateProof",
            "outputs": [
                {
                    "name": "",
                    "type": "bytes"
                }
            ],
            "payable": false,
            "stateMutability": "nonpayable",
            "type": "function"
        },
        {
            "constant": false,
            "inputs": [
                {
                    "name": "_proof",
                    "type": "uint24"
                },
                {
                    "name": "_proofHashes",
                    "type": "bytes32[]"
                }
            ],
            "name": "clearProofByHashes",
            "outputs": [],
            "payable": false,
            "stateMutability": "nonpayable",
            "type": "function"
        },
        {
            "constant": false,
            "inputs": [
                {
                    "name": "_commonReferenceString",
                    "type": "bytes32[6]"
                }
            ],
            "name": "setCommonReferenceString",
            "outputs": [],
            "payable": false,
            "stateMutability": "nonpayable",
            "type": "function"
        },
        {
            "constant": false,
            "inputs": [
                {
                    "name": "_proof",
                    "type": "uint24"
                }
            ],
            "name": "invalidateProof",
            "outputs": [],
            "payable": false,
            "stateMutability": "nonpayable",
            "type": "function"
        },
        {
            "constant": true,
            "inputs": [
                {
                    "name": "_proof",
                    "type": "uint24"
                },
                {
                    "name": "_proofHash",
                    "type": "bytes32"
                },
                {
                    "name": "_sender",
                    "type": "address"
                }
            ],
            "name": "validateProofByHash",
            "outputs": [
                {
                    "name": "",
                    "type": "bool"
                }
            ],
            "payable": false,
            "stateMutability": "view",
            "type": "function"
        },
        {
            "constant": false,
            "inputs": [
                {
                    "name": "_proof",
                    "type": "uint24"
                },
                {
                    "name": "_validatorAddress",
                    "type": "address"
                }
            ],
            "name": "setProof",
            "outputs": [],
            "payable": false,
            "stateMutability": "nonpayable",
            "type": "function"
        },
        {
            "constant": false,
            "inputs": [],
            "name": "incrementLatestEpoch",
            "outputs": [],
            "payable": false,
            "stateMutability": "nonpayable",
            "type": "function"
        },
        {
            "constant": true,
            "inputs": [],
            "name": "getCommonReferenceString",
            "outputs": [
                {
                    "name": "",
                    "type": "bytes32[6]"
                }
            ],
            "payable": false,
            "stateMutability": "view",
            "type": "function"
        },
        {
            "constant": true,
            "inputs": [
                {
                    "name": "_proof",
                    "type": "uint24"
                }
            ],
            "name": "getValidatorAddress",
            "outputs": [
                {
                    "name": "validatorAddress",
                    "type": "address"
                }
            ],
            "payable": false,
            "stateMutability": "view",
            "type": "function"
        }
    ],
    "bytecode": "0x6080604052600164010800000960006101000a81548160ff021916908360ff16021790555034801561003057600080fd5b50336000806101000a81548173ffffffffffffffffffffffffffffffffffffffff021916908373ffffffffffffffffffffffffffffffffffffffff1602179055506000809054906101000a900473ffffffffffffffffffffffffffffffffffffffff1673ffffffffffffffffffffffffffffffffffffffff16600073ffffffffffffffffffffffffffffffffffffffff167f8be0079c531659141344cd1fd0a4f28419497f9722a3daafe3b4186f6b6457e060405160405180910390a3614535806100fc6000396000f3fe608060405234801561001057600080fd5b50600436106101e45760003560e01c80638f32d59b1161010f578063d19287a6116100a2578063edc6197c11610071578063edc6197c14610bfc578063f2fde38b14610c6f578063f971d77c14610cb3578063fedee26614610d69576101e4565b8063d19287a614610a15578063dd695b7214610b36578063df92462514610b7c578063e308d6ff14610ba4576101e4565b8063a5468ca2116100de578063a5468ca21461092c578063b05dd17314610992578063b2aad2181461099c578063caaaa5d8146109e2576101e4565b80638f32d59b146106db578063977796d2146106fd5780639cb118bf146107e7578063a2866ea31461080b576101e4565b80634e982ca7116101875780638500e1f8116101565780638500e1f8146105cc5780638da5cb5b146105f45780638e526d9b1461063e5780638f19301b14610666576101e4565b80634e982ca7146103ba57806356a0d4771461043c578063715018a6146104a157806380037eeb146104ab576101e4565b806343b54208116101c357806343b54208146102b7578063465903dd146102e557806349518b281461033f5780634d1d4dc614610367576101e4565b80625bf732146101e957806307616051146102115780633b4182801461022f575b600080fd5b6101f1610e2e565b604051808262ffffff1662ffffff16815260200191505060405180910390f35b610219610e35565b6040518082815260200191505060405180910390f35b6102b56004803603604081101561024557600080fd5b81019080803562ffffff1690602001909291908035906020019064010000000081111561027157600080fd5b82018360208201111561028357600080fd5b803590602001918460208302840111640100000000831117156102a557600080fd5b9091929391929390505050610e5c565b005b6102e3600480360360208110156102cd57600080fd5b8101908080359060200190929190505050611038565b005b610325600480360360608110156102fb57600080fd5b81019080803590602001909291908035906020019092919080359060200190929190505050611322565b604051808215151515815260200191505060405180910390f35b610347611374565b604051808262ffffff1662ffffff16815260200191505060405180910390f35b6103b86004803603604081101561037d57600080fd5b81019080803562ffffff169060200190929190803573ffffffffffffffffffffffffffffffffffffffff16906020019092919050505061137b565b005b6103fa600480360360608110156103d057600080fd5b810190808035906020019092919080359060200190929190803590602001909291905050506116d8565b604051808273ffffffffffffffffffffffffffffffffffffffff1673ffffffffffffffffffffffffffffffffffffffff16815260200191505060405180910390f35b61049f600480360360c081101561045257600080fd5b810190808060c001906006806020026040519081016040528092919082600660200280828437600081840152601f19601f8201169050808301925050505050509192919290505050611734565b005b6104a9611805565b005b610551600480360360608110156104c157600080fd5b81019080803562ffffff169060200190929190803590602001906401000000008111156104ed57600080fd5b8201836020820111156104ff57600080fd5b8035906020019184600183028401116401000000008311171561052157600080fd5b9091929391929390803573ffffffffffffffffffffffffffffffffffffffff1690602001909291905050506118d5565b6040518080602001828103825283818151815260200191508051906020019080838360005b83811015610591578082015181840152602081019050610576565b50505050905090810190601f1680156105be5780820380516001836020036101000a031916815260200191505b509250505060405180910390f35b6105d4611d99565b604051808262ffffff1662ffffff16815260200191505060405180910390f35b6105fc611da0565b604051808273ffffffffffffffffffffffffffffffffffffffff1673ffffffffffffffffffffffffffffffffffffffff16815260200191505060405180910390f35b610646611dc9565b604051808262ffffff1662ffffff16815260200191505060405180910390f35b6106c16004803603606081101561067c57600080fd5b81019080803562ffffff16906020019092919080359060200190929190803573ffffffffffffffffffffffffffffffffffffffff169060200190929190505050611dd0565b604051808215151515815260200191505060405180910390f35b6106e3611eb0565b604051808215151515815260200191505060405180910390f35b6107e56004803603606081101561071357600080fd5b81019080803562ffffff1690602001909291908035906020019064010000000081111561073f57600080fd5b82018360208201111561075157600080fd5b8035906020019184600183028401116401000000008311171561077357600080fd5b91908080601f016020809104026020016040519081016040528093929190818152602001838380828437600081840152601f19601f820116905080830192505050505050509192919290803573ffffffffffffffffffffffffffffffffffffffff169060200190929190505050611f07565b005b6107ef6124f4565b604051808260ff1660ff16815260200191505060405180910390f35b6108b16004803603606081101561082157600080fd5b81019080803562ffffff169060200190929190803573ffffffffffffffffffffffffffffffffffffffff1690602001909291908035906020019064010000000081111561086d57600080fd5b82018360208201111561087f57600080fd5b803590602001918460018302840111640100000000831117156108a157600080fd5b909192939192939050505061250b565b6040518080602001828103825283818151815260200191508051906020019080838360005b838110156108f15780820151818401526020810190506108d6565b50505050905090810190601f16801561091e5780820380516001836020036101000a031916815260200191505b509250505060405180910390f35b6109906004803603608081101561094257600080fd5b81019080803573ffffffffffffffffffffffffffffffffffffffff16906020019092919080359060200190929190803515159060200190929190803515159060200190929190505050612757565b005b61099a612b68565b005b6109c8600480360360208110156109b257600080fd5b8101908080359060200190929190505050612c5f565b604051808215151515815260200191505060405180910390f35b610a13600480360360208110156109f857600080fd5b81019080803562ffffff169060200190929190505050612c83565b005b610abb60048036036060811015610a2b57600080fd5b81019080803562ffffff16906020019092919080359060200190640100000000811115610a5757600080fd5b820183602082011115610a6957600080fd5b80359060200191846001830284011164010000000083111715610a8b57600080fd5b9091929391929390803573ffffffffffffffffffffffffffffffffffffffff169060200190929190505050612e3f565b6040518080602001828103825283818151815260200191508051906020019080838360005b83811015610afb578082015181840152602081019050610ae0565b50505050905090810190601f168015610b285780820380516001836020036101000a031916815260200191505b509250505060405180910390f35b610b3e613285565b6040518082600660200280838360005b83811015610b69578082015181840152602081019050610b4e565b5050505090500191505060405180910390f35b610b846132d0565b604051808262ffffff1662ffffff16815260200191505060405180910390f35b610bfa60048036036060811015610bba57600080fd5b81019080803573ffffffffffffffffffffffffffffffffffffffff16906020019092919080359060200190929190803590602001909291905050506132d7565b005b610c2d60048036036020811015610c1257600080fd5b81019080803562ffffff169060200190929190505050613405565b604051808273ffffffffffffffffffffffffffffffffffffffff1673ffffffffffffffffffffffffffffffffffffffff16815260200191505060405180910390f35b610cb160048036036020811015610c8557600080fd5b81019080803573ffffffffffffffffffffffffffffffffffffffff169060200190929190505050613508565b005b610cf560048036036020811015610cc957600080fd5b81019080803573ffffffffffffffffffffffffffffffffffffffff169060200190929190505050613525565b604051808873ffffffffffffffffffffffffffffffffffffffff1673ffffffffffffffffffffffffffffffffffffffff168152602001878152602001868152602001858152602001848152602001831515151581526020018215151515815260200197505050505050505060405180910390f35b610db560048036036040811015610d7f57600080fd5b81019080803573ffffffffffffffffffffffffffffffffffffffff16906020019092919080359060200190929190505050613782565b604051808560ff1660ff1681526020018464ffffffffff1664ffffffffff1681526020018364ffffffffff1664ffffffffff1681526020018273ffffffffffffffffffffffffffffffffffffffff1673ffffffffffffffffffffffffffffffffffffffff16815260200194505050505060405180910390f35b6201010181565b7fcbc417524e52b95c42a4c42d357938497e3d199eb9b4a0139c92551d4000bc3c60001b81565b600082829050905060008090505b81811015611031576000848483818110610e8057fe5b9050602002013590506000801b811415610f02576040517f08c379a000000000000000000000000000000000000000000000000000000000815260040180806020018281038252601c8152602001807f6578706563746564206e6f20656d7074792070726f6f6620686173680000000081525060200191505060405180910390fd5b6000818733604051602001808481526020018362ffffff1662ffffff1681526020018273ffffffffffffffffffffffffffffffffffffffff1673ffffffffffffffffffffffffffffffffffffffff16815260200193505050506040516020818303038152906040528051906020012090506001151564010800000a600083815260200190815260200160002060009054906101000a900460ff16151514610ff4576040517f08c379a000000000000000000000000000000000000000000000000000000000815260040180806020018281038252602a8152602001806142db602a913960400191505060405180910390fd5b600064010800000a600083815260200190815260200160002060006101000a81548160ff0219169083151502179055505050600181019050610e6a565b5050505050565b6000600160003373ffffffffffffffffffffffffffffffffffffffff1673ffffffffffffffffffffffffffffffffffffffff1681526020019081526020016000209050600115158160060160000160009054906101000a900460ff161515146110ec576040517f08c379a00000000000000000000000000000000000000000000000000000000081526004018080602001828103825260328152602001806143586032913960400191505060405180910390fd5b600115158160060160000160029054906101000a900460ff1615151461115d576040517f08c379a000000000000000000000000000000000000000000000000000000000815260040180806020018281038252602d81526020018061432b602d913960400191505060405180910390fd5b600115158160060160000160019054906101000a900460ff161515146111ce576040517f08c379a00000000000000000000000000000000000000000000000000000000081526004018080602001828103825260308152602001806141876030913960400191505060405180910390fd5b8060000160009054906101000a900473ffffffffffffffffffffffffffffffffffffffff1673ffffffffffffffffffffffffffffffffffffffff166323b872dd333061122785600101548761391390919063ffffffff16565b6040518463ffffffff1660e01b8152600401808473ffffffffffffffffffffffffffffffffffffffff1673ffffffffffffffffffffffffffffffffffffffff1681526020018373ffffffffffffffffffffffffffffffffffffffff1673ffffffffffffffffffffffffffffffffffffffff1681526020018281526020019350505050602060405180830381600087803b1580156112c357600080fd5b505af11580156112d7573d6000803e3d6000fd5b505050506040513d60208110156112ed57600080fd5b81019080805190602001909291905050505061131682826002015461394d90919063ffffffff16565b81600201819055505050565b6401000000098362010000811061133557fe5b610800020182610100811061134657fe5b6008020181610100811061135657fe5b6020918282040191900692509250509054906101000a900460ff1681565b6201040281565b611383611eb0565b6113f5576040517f08c379a000000000000000000000000000000000000000000000000000000000815260040180806020018281038252601e8152602001807f6f6e6c7920746865206f776e65722063616e2073657420612070726f6f66000081525060200191505060405180910390fd5b600073ffffffffffffffffffffffffffffffffffffffff168173ffffffffffffffffffffffffffffffffffffffff16141561147b576040517f08c379a00000000000000000000000000000000000000000000000000000000081526004018080602001828103825260278152602001806144976027913960400191505060405180910390fd5b600080600061148e8562ffffff1661396c565b92509250925064010800000960009054906101000a900460ff1660ff168360ff161115611506576040517f08c379a000000000000000000000000000000000000000000000000000000000815260040180806020018281038252603681526020018061420a6036913960400191505060405180910390fd5b600073ffffffffffffffffffffffffffffffffffffffff1660098460ff1662010000811061153057fe5b6201000002018360ff16610100811061154557fe5b61010002018260ff16610100811061155957fe5b0160009054906101000a900473ffffffffffffffffffffffffffffffffffffffff1673ffffffffffffffffffffffffffffffffffffffff16146115e7576040517f08c379a00000000000000000000000000000000000000000000000000000000081526004018080602001828103825260228152602001806142696022913960400191505060405180910390fd5b8360098460ff166201000081106115fa57fe5b6201000002018360ff16610100811061160f57fe5b61010002018260ff16610100811061162357fe5b0160006101000a81548173ffffffffffffffffffffffffffffffffffffffff021916908373ffffffffffffffffffffffffffffffffffffffff1602179055508060ff168260ff168460ff167f056d19b176848b2ba83ba7d1d83c9022e6c1bd37d5c648a143ccec369e53f3c987604051808273ffffffffffffffffffffffffffffffffffffffff1673ffffffffffffffffffffffffffffffffffffffff16815260200191505060405180910390a45050505050565b6009836201000081106116e757fe5b6201000002018261010081106116f957fe5b610100020181610100811061170a57fe5b01600092509250509054906101000a900473ffffffffffffffffffffffffffffffffffffffff1681565b61173c611eb0565b611791576040517f08c379a00000000000000000000000000000000000000000000000000000000081526004018080602001828103825260328152602001806144656032913960400191505060405180910390fd5b8060039060066117a292919061402c565b507f85adab12e45179738a96f914df934f3d0b656588ea13f75093bd4796dc3e2736816040518082600660200280838360005b838110156117f05780820151818401526020810190506117d5565b5050505090500191505060405180910390a150565b61180d611eb0565b61181657600080fd5b600073ffffffffffffffffffffffffffffffffffffffff166000809054906101000a900473ffffffffffffffffffffffffffffffffffffffff1673ffffffffffffffffffffffffffffffffffffffff167f8be0079c531659141344cd1fd0a4f28419497f9722a3daafe3b4186f6b6457e060405160405180910390a360008060006101000a81548173ffffffffffffffffffffffffffffffffffffffff021916908373ffffffffffffffffffffffffffffffffffffffff160217905550565b60606000600160003373ffffffffffffffffffffffffffffffffffffffff1673ffffffffffffffffffffffffffffffffffffffff1681526020019081526020016000209050600115158160060160000160009054906101000a900460ff1615151461198b576040517f08c379a00000000000000000000000000000000000000000000000000000000081526004018080602001828103825260328152602001806143586032913960400191505060405180910390fd5b600115158160060160000160019054906101000a900460ff16151514611a19576040517f08c379a000000000000000000000000000000000000000000000000000000000815260040180806020018281038252601a8152602001807f74686973206173736574206973206e6f74206d696e7461626c6500000000000081525060200191505060405180910390fd5b6000611a298762ffffff1661396c565b5091505060026004811115611a3a57fe5b60ff168160ff1614611ab4576040517f08c379a00000000000000000000000000000000000000000000000000000000081526004018080602001828103825260188152602001807f74686973206973206e6f742061206d696e742070726f6f66000000000000000081525060200191505060405180910390fd5b60603073ffffffffffffffffffffffffffffffffffffffff1663a2866ea389878a8a6040518563ffffffff1660e01b8152600401808562ffffff1662ffffff1681526020018473ffffffffffffffffffffffffffffffffffffffff1673ffffffffffffffffffffffffffffffffffffffff168152602001806020018281038252848482818152602001925080828437600081840152601f19601f82011690508083019250505095505050505050600060405180830381600087803b158015611b7b57600080fd5b505af1158015611b8f573d6000803e3d6000fd5b505050506040513d6000823e3d601f19601f820116820180604052506020811015611bb957600080fd5b810190808051640100000000811115611bd157600080fd5b82810190506020810184811115611be757600080fd5b8151856001820283011164010000000082111715611c0457600080fd5b505092919050505090506000611c198261399c565b11611c8c576040517f08c379a000000000000000000000000000000000000000000000000000000000815260040180806020018281038252601c8152602001807f63616c6c20746f2076616c696461746550726f6f66206661696c65640000000081525060200191505060405180910390fd5b606080611cab611ca66000856139aa90919063ffffffff16565b613a22565b5050915091506000611ccf611cca6000856139aa90919063ffffffff16565b613a65565b5091505085600301548114611d2f576040517f08c379a00000000000000000000000000000000000000000000000000000000081526004018080602001828103825260298152602001806142406029913960400191505060405180910390fd5b6000611d4d611d486000856139aa90919063ffffffff16565b613a65565b509150508087600301819055506060611d78611d736001886139aa90919063ffffffff16565b613a22565b5050915050611d8681613a9b565b8598505050505050505050949350505050565b6201040181565b60008060009054906101000a900473ffffffffffffffffffffffffffffffffffffffff16905090565b6201020181565b60008060006401000000098660051c0154601f871660031b1c90506040518560005286602052846040526060600020925080604052506000151581151514611e80576040517f08c379a000000000000000000000000000000000000000000000000000000000815260040180806020018281038252601d8152602001807f70726f6f6620696420686173206265656e20696e76616c69646174656400000081525060200191505060405180910390fd5b64010800000a600083815260200190815260200160002060009054906101000a900460ff16925050509392505050565b60008060009054906101000a900473ffffffffffffffffffffffffffffffffffffffff1673ffffffffffffffffffffffffffffffffffffffff163373ffffffffffffffffffffffffffffffffffffffff1614905090565b6000600160003373ffffffffffffffffffffffffffffffffffffffff1673ffffffffffffffffffffffffffffffffffffffff1681526020019081526020016000209050611f5261406c565b816006016040518060600160405290816000820160009054906101000a900460ff161515151581526020016000820160019054906101000a900460ff161515151581526020016000820160029054906101000a900460ff1615151515815250509050600115158160000151151514612015576040517f08c379a00000000000000000000000000000000000000000000000000000000081526004018080602001828103825260328152602001806143586032913960400191505060405180910390fd5b60008480519060200120905060011515612030878387611dd0565b151514612088576040517f08c379a00000000000000000000000000000000000000000000000000000000081526004018080602001828103825260268152602001806143056026913960400191505060405180910390fd5b60006002600083815260200190815260200160002060006101000a81548160ff0219169083151502179055506060806000806120c389613a22565b93509350935093506120d484613c7c565b6120dd83613a9b565b600081146124e857600115158660400151151514612146576040517f08c379a000000000000000000000000000000000000000000000000000000000815260040180806020018281038252602c81526020018061428b602c913960400191505060405180910390fd5b60008112156123ca5760008760080160008473ffffffffffffffffffffffffffffffffffffffff1673ffffffffffffffffffffffffffffffffffffffff16815260200190815260200160002060008781526020019081526020016000205490506121c082600003896002015461394d90919063ffffffff16565b886002018190555081600003811015612224576040517f08c379a000000000000000000000000000000000000000000000000000000000815260040180806020018281038252603381526020018061438a6033913960400191505060405180910390fd5b61223a8260000382613ea390919063ffffffff16565b8860080160008573ffffffffffffffffffffffffffffffffffffffff1673ffffffffffffffffffffffffffffffffffffffff1681526020019081526020016000206000888152602001908152602001600020819055508760000160009054906101000a900473ffffffffffffffffffffffffffffffffffffffff1673ffffffffffffffffffffffffffffffffffffffff166323b872dd84306122ec8c600101548760000361391390919063ffffffff16565b6040518463ffffffff1660e01b8152600401808473ffffffffffffffffffffffffffffffffffffffff1673ffffffffffffffffffffffffffffffffffffffff1681526020018373ffffffffffffffffffffffffffffffffffffffff1673ffffffffffffffffffffffffffffffffffffffff1681526020018281526020019350505050602060405180830381600087803b15801561238857600080fd5b505af115801561239c573d6000803e3d6000fd5b505050506040513d60208110156123b257600080fd5b810190808051906020019092919050505050506124e7565b6123e1818860020154613ea390919063ffffffff16565b87600201819055508660000160009054906101000a900473ffffffffffffffffffffffffffffffffffffffff1673ffffffffffffffffffffffffffffffffffffffff1663a9059cbb836124418a600101548561391390919063ffffffff16565b6040518363ffffffff1660e01b8152600401808373ffffffffffffffffffffffffffffffffffffffff1673ffffffffffffffffffffffffffffffffffffffff16815260200182815260200192505050602060405180830381600087803b1580156124aa57600080fd5b505af11580156124be573d6000803e3d6000fd5b505050506040513d60208110156124d457600080fd5b8101908080519060200190929190505050505b5b50505050505050505050565b64010800000960009054906101000a900460ff1681565b606060008562ffffff161415612589576040517f08c379a000000000000000000000000000000000000000000000000000000000815260040180806020018281038252601e8152602001807f6578706563746564207468652070726f6f6620746f2062652076616c6964000081525060200191505060405180910390fd5b600061259486613405565b905060606044356004016040516101006004820152876024820152600354604482015260036001015460648201526003600201546084820152600380015460a482015260036004015460c482015260036005015460e48201526101048101602083350180848337610104810160008082868a5afa6000811461261557612621565b61019060005260206000fd5b503d6000853e3d840160405283518401955050505050506001600481111561264557fe5b60ff1660ff60088962ffffff16901c1662ffffff16141561274a57600061266b8261399c565b905060008090505b8181101561274757600061269082856139aa90919063ffffffff16565b8051906020012090506000818b33604051602001808481526020018362ffffff1662ffffff1681526020018273ffffffffffffffffffffffffffffffffffffffff1673ffffffffffffffffffffffffffffffffffffffff1681526020019350505050604051602081830303815290604052805190602001209050600164010800000a600083815260200190815260200160002060006101000a81548160ff0219169083151502179055505050600181019050612673565b50505b8092505050949350505050565b60001515600160003373ffffffffffffffffffffffffffffffffffffffff1673ffffffffffffffffffffffffffffffffffffffff16815260200190815260200160002060060160000160009054906101000a900460ff16151514612806576040517f08c379a000000000000000000000000000000000000000000000000000000000815260040180806020018281038252602a8152602001806144be602a913960400191505060405180910390fd5b801561289357600073ffffffffffffffffffffffffffffffffffffffff168473ffffffffffffffffffffffffffffffffffffffff161415612892576040517f08c379a000000000000000000000000000000000000000000000000000000000815260040180806020018281038252602a815260200180614416602a913960400191505060405180910390fd5b5b61289b614093565b6040518060e001604052808673ffffffffffffffffffffffffffffffffffffffff168152602001858152602001600081526020017fcbc417524e52b95c42a4c42d357938497e3d199eb9b4a0139c92551d4000bc3c60001b81526020017fcbc417524e52b95c42a4c42d357938497e3d199eb9b4a0139c92551d4000bc3c60001b81526020016000815260200160405180606001604052806001151581526020018615158152602001851515815250815250905080600160003373ffffffffffffffffffffffffffffffffffffffff1673ffffffffffffffffffffffffffffffffffffffff16815260200190815260200160002060008201518160000160006101000a81548173ffffffffffffffffffffffffffffffffffffffff021916908373ffffffffffffffffffffffffffffffffffffffff1602179055506020820151816001015560408201518160020155606082015181600301556080820151816004015560a0820151816005015560c08201518160060160008201518160000160006101000a81548160ff02191690831515021790555060208201518160000160016101000a81548160ff02191690831515021790555060408201518160000160026101000a81548160ff02191690831515021790555050509050507f34fbbb932061028a5177da0c6ca6a7359202a390c458f2c2c042ca3e4357d53e333086888787604051808773ffffffffffffffffffffffffffffffffffffffff1673ffffffffffffffffffffffffffffffffffffffff1681526020018673ffffffffffffffffffffffffffffffffffffffff1673ffffffffffffffffffffffffffffffffffffffff1681526020018581526020018473ffffffffffffffffffffffffffffffffffffffff1673ffffffffffffffffffffffffffffffffffffffff1681526020018315151515815260200182151515158152602001965050505050505060405180910390a15050505050565b612b70611eb0565b612bc5576040517f08c379a000000000000000000000000000000000000000000000000000000000815260040180806020018281038252602a8152602001806141b7602a913960400191505060405180910390fd5b612bef600164010800000960009054906101000a900460ff1660ff16613ec390919063ffffffff16565b64010800000960006101000a81548160ff021916908360ff1602179055507f9a76c82938224c049c704b5f4bfdbe9ef61749be7b65291103b97274b874665d64010800000960009054906101000a900460ff16604051808260ff1660ff16815260200191505060405180910390a1565b64010800000a6020528060005260406000206000915054906101000a900460ff1681565b612c8b611eb0565b612ce0576040517f08c379a00000000000000000000000000000000000000000000000000000000081526004018080602001828103825260258152602001806141626025913960400191505060405180910390fd5b6000806000612cf38462ffffff1661396c565b925092509250600073ffffffffffffffffffffffffffffffffffffffff1660098460ff16620100008110612d2357fe5b6201000002018360ff166101008110612d3857fe5b61010002018260ff166101008110612d4c57fe5b0160009054906101000a900473ffffffffffffffffffffffffffffffffffffffff1673ffffffffffffffffffffffffffffffffffffffff161415612ddb576040517f08c379a00000000000000000000000000000000000000000000000000000000081526004018080602001828103825260258152602001806144406025913960400191505060405180910390fd5b60016401000000098460ff16620100008110612df357fe5b61080002018360ff166101008110612e0757fe5b600802018260ff166101008110612e1a57fe5b602091828204019190066101000a81548160ff02191690831515021790555050505050565b60606000600160003373ffffffffffffffffffffffffffffffffffffffff1673ffffffffffffffffffffffffffffffffffffffff1681526020019081526020016000209050600115158160060160000160009054906101000a900460ff16151514612ef5576040517f08c379a00000000000000000000000000000000000000000000000000000000081526004018080602001828103825260328152602001806143586032913960400191505060405180910390fd5b600115158160060160000160019054906101000a900460ff16151514612f83576040517f08c379a000000000000000000000000000000000000000000000000000000000815260040180806020018281038252601a8152602001807f74686973206173736574206973206e6f74206275726e61626c6500000000000081525060200191505060405180910390fd5b6000612f938762ffffff1661396c565b5091505060036004811115612fa457fe5b60ff168160ff161461301e576040517f08c379a00000000000000000000000000000000000000000000000000000000081526004018080602001828103825260188152602001807f74686973206973206e6f742061206275726e2070726f6f66000000000000000081525060200191505060405180910390fd5b60603073ffffffffffffffffffffffffffffffffffffffff1663a2866ea389878a8a6040518563ffffffff1660e01b8152600401808562ffffff1662ffffff1681526020018473ffffffffffffffffffffffffffffffffffffffff1673ffffffffffffffffffffffffffffffffffffffff168152602001806020018281038252848482818152602001925080828437600081840152601f19601f82011690508083019250505095505050505050600060405180830381600087803b1580156130e557600080fd5b505af11580156130f9573d6000803e3d6000fd5b505050506040513d6000823e3d601f19601f82011682018060405250602081101561312357600080fd5b81019080805164010000000081111561313b57600080fd5b8281019050602081018481111561315157600080fd5b815185600182028301116401000000008211171561316e57600080fd5b505092919050505090506060806131976131926000856139aa90919063ffffffff16565b613a22565b50509150915060006131bb6131b66000856139aa90919063ffffffff16565b613a65565b509150508560040154811461321b576040517f08c379a00000000000000000000000000000000000000000000000000000000081526004018080602001828103825260298152602001806141e16029913960400191505060405180910390fd5b60006132396132346000856139aa90919063ffffffff16565b613a65565b50915050808760040181905550606061326461325f6001886139aa90919063ffffffff16565b613a22565b505091505061327281613c7c565b8598505050505050505050949350505050565b61328d6140f3565b60036006806020026040519081016040528092919082600680156132c6576020028201915b8154815260200190600101908083116132b2575b5050505050905090565b6201030181565b6000600160008573ffffffffffffffffffffffffffffffffffffffff1673ffffffffffffffffffffffffffffffffffffffff1681526020019081526020016000209050600115158160060160000160009054906101000a900460ff161515146133a8576040517f08c379a000000000000000000000000000000000000000000000000000000000815260040180806020018281038252601c8152602001807f6e6f746520726567697374727920646f6573206e6f742065786973740000000081525060200191505060405180910390fd5b818160080160003373ffffffffffffffffffffffffffffffffffffffff1673ffffffffffffffffffffffffffffffffffffffff16815260200190815260200160002060008581526020019081526020016000208190555050505050565b600080600060098401549250818315179050801561350157600073ffffffffffffffffffffffffffffffffffffffff168373ffffffffffffffffffffffffffffffffffffffff1614156134a3576040517f08c379a00000000000000000000000000000000000000000000000000000000081526004018080602001828103825260278152602001806144976027913960400191505060405180910390fd5b6000151582151514613500576040517f08c379a00000000000000000000000000000000000000000000000000000000081526004018080602001828103825260318152602001806143e56031913960400191505060405180910390fd5b5b5050919050565b613510611eb0565b61351957600080fd5b61352281613f34565b50565b600080600080600080600060011515600160008a73ffffffffffffffffffffffffffffffffffffffff1673ffffffffffffffffffffffffffffffffffffffff16815260200190815260200160002060060160000160009054906101000a900460ff161515146135fc576040517f08c379a000000000000000000000000000000000000000000000000000000000815260040180806020018281038252601f8152602001807f657870656374656420726567697374727920746f20626520637265617465640081525060200191505060405180910390fd5b613604614093565b600160008a73ffffffffffffffffffffffffffffffffffffffff1673ffffffffffffffffffffffffffffffffffffffff1681526020019081526020016000206040518060e00160405290816000820160009054906101000a900473ffffffffffffffffffffffffffffffffffffffff1673ffffffffffffffffffffffffffffffffffffffff1673ffffffffffffffffffffffffffffffffffffffff1681526020016001820154815260200160028201548152602001600382015481526020016004820154815260200160058201548152602001600682016040518060600160405290816000820160009054906101000a900460ff161515151581526020016000820160019054906101000a900460ff161515151581526020016000820160029054906101000a900460ff161515151581525050815250509050806000015181602001518260400151836060015184608001518560c00151604001518660c0015160200151975097509750975097509750975050919395979092949650565b6000806000806000600281111561379557fe5b60ff16600160008873ffffffffffffffffffffffffffffffffffffffff1673ffffffffffffffffffffffffffffffffffffffff168152602001908152602001600020600701600087815260200190815260200160002060000160009054906101000a900460ff1660ff161415613873576040517f08c379a00000000000000000000000000000000000000000000000000000000081526004018080602001828103825260168152602001807f6578706563746564206e6f746520746f2065786973740000000000000000000081525060200191505060405180910390fd5b6000600160008873ffffffffffffffffffffffffffffffffffffffff1673ffffffffffffffffffffffffffffffffffffffff16815260200190815260200160002060070160008781526020019081526020016000209050805460ff8116955064ffffffffff8160081c16945064ffffffffff8160301c16935073ffffffffffffffffffffffffffffffffffffffff8160581c169250505092959194509250565b6000808314156139265760009050613947565b600082840290508284828161393757fe5b041461394257600080fd5b809150505b92915050565b60008082840190508381101561396257600080fd5b8091505092915050565b600080600060ff8416905060ff610100850416915060ff6201000085041692508282829250925092509193909250565b600060208201519050919050565b60606000602084015183109050836020840260408601015101915080613a1b576040517f08c379a00000000000000000000000000000000000000000000000000000000081526004018080602001828103825260228152602001806144e86022913960400191505060405180910390fd5b5092915050565b60608060008060208501518501935060408501518501925073ffffffffffffffffffffffffffffffffffffffff6060860151169150608085015190509193509193565b600080606073ffffffffffffffffffffffffffffffffffffffff6040850151169250606084015191506080840190509193909250565b600060016002811115613aaa57fe5b9050600080613ab88461399c565b905060008090505b81811015613c7557600080613ae6613ae184896139aa90919063ffffffff16565b613a65565b5091509150600073ffffffffffffffffffffffffffffffffffffffff168273ffffffffffffffffffffffffffffffffffffffff161415613b71576040517f08c379a00000000000000000000000000000000000000000000000000000000081526004018080602001828103825260288152602001806143bd6028913960400191505060405180910390fd5b6000600160003373ffffffffffffffffffffffffffffffffffffffff1673ffffffffffffffffffffffffffffffffffffffff1681526020019081526020016000206007016000838152602001908152602001600020905060ff81541695508260581b64ffffffffff421660081b60ff89161717815560006002811115613bf357fe5b8614613c67576040517f08c379a00000000000000000000000000000000000000000000000000000000081526004018080602001828103825260128152602001807f6f7574707574206e6f746520657869737473000000000000000000000000000081525060200191505060405180910390fd5b505050600181019050613ac0565b5050505050565b6000600280811115613c8a57fe5b90506000806000613c9a8561399c565b905060008090505b81811015613e9b57600080613cc8613cc3848a6139aa90919063ffffffff16565b613a65565b50915091506000600160003373ffffffffffffffffffffffffffffffffffffffff1673ffffffffffffffffffffffffffffffffffffffff16815260200190815260200160002060070160008381526020019081526020016000209050805460ff8116975073ffffffffffffffffffffffffffffffffffffffff8160581c16965060ff891664ffffffffff421660301b176affffffffff0000000000ff1982161782555060016002811115613d7857fe5b8714613dec576040517f08c379a00000000000000000000000000000000000000000000000000000000081526004018080602001828103825260208152602001807f696e707574206e6f746520737461747573206973206e6f7420554e5350454e5481525060200191505060405180910390fd5b8273ffffffffffffffffffffffffffffffffffffffff168673ffffffffffffffffffffffffffffffffffffffff1614613e8d576040517f08c379a000000000000000000000000000000000000000000000000000000000815260040180806020018281038252601f8152602001807f696e707574206e6f7465206f776e657220646f6573206e6f74206d617463680081525060200191505060405180910390fd5b505050600181019050613ca2565b505050505050565b600082821115613eb257600080fd5b600082840390508091505092915050565b60008082840190508360ff168160ff161015613f2a576040517f08c379a00000000000000000000000000000000000000000000000000000000081526004018080602001828103825260248152602001806142b76024913960400191505060405180910390fd5b8091505092915050565b600073ffffffffffffffffffffffffffffffffffffffff168173ffffffffffffffffffffffffffffffffffffffff161415613f6e57600080fd5b8073ffffffffffffffffffffffffffffffffffffffff166000809054906101000a900473ffffffffffffffffffffffffffffffffffffffff1673ffffffffffffffffffffffffffffffffffffffff167f8be0079c531659141344cd1fd0a4f28419497f9722a3daafe3b4186f6b6457e060405160405180910390a3806000806101000a81548173ffffffffffffffffffffffffffffffffffffffff021916908373ffffffffffffffffffffffffffffffffffffffff16021790555050565b826006810192821561405b579160200282015b8281111561405a57825182559160200191906001019061403f565b5b5090506140689190614115565b5090565b60405180606001604052806000151581526020016000151581526020016000151581525090565b604051806101200160405280600073ffffffffffffffffffffffffffffffffffffffff16815260200160008152602001600081526020016000801916815260200160008019168152602001600081526020016140ed61413a565b81525090565b6040518060c00160405280600690602082028038833980820191505090505090565b61413791905b8082111561413357600081600090555060010161411b565b5090565b90565b6040518060600160405280600015158152602001600015158152602001600015158152509056fe6f6e6c7920746865206f776e65722063616e20696e76616c696461746520612070726f6f666e6f746520726567697374727920646f6573206e6f742068617665206d696e7420616e64206275726e207269676874736f6e6c7920746865206f776e65722063616e2075706461746520746865206c61746573742065706f636870726f766964656420746f74616c206275726e6564206e6f746520646f6573206e6f74206d617463687468652070726f6f662065706f63682063616e6e6f7420626520626967676572207468616e20746865206c61746573742065706f636870726f766964656420746f74616c206d696e746564206e6f746520646f6573206e6f74206d617463686578697374696e672070726f6f66732063616e6e6f74206265206d6f64696669656461737365742063616e6e6f7420626520636f6e76657274656420696e746f207075626c696320746f6b656e7375696e7438206164642074726967676572656420696e7465676572206f766572666c6f7763616e206f6e6c7920636c6561722070726576696f75736c792076616c6964617465642070726f6f667341434520686173206e6f742076616c6964617465642061206d61746368696e672070726f6f666e6f746520726567697374727920646f6573206e6f74206861766520636f6e76657273696f6e207269676874736e6f746520726567697374727920646f6573206e6f7420657869737420666f722074686520676976656e20616464726573737075626c6963206f776e657220686173206e6f742076616c6964617465642061207472616e73666572206f6620746f6b656e736f7574707574206e6f7465206f776e65722063616e6e6f74206265206164647265737328307830296578706563746564207468652076616c696461746f72206164647265737320746f206e6f742062652064697361626c6564657870656374656420746865206c696e6b656420746f6b656e206164647265737320746f20657869737463616e206f6e6c7920696e76616c69646174652070726f6f667320746861742065786973746f6e6c7920746865206f776e65722063616e207365742074686520636f6d6d6f6e207265666572656e636520737472696e676578706563746564207468652076616c696461746f72206164647265737320746f2065786973746164647265737320616c7265616479206861732061206c696e6b6564206e6f7465207265676973747279415a54454320617272617920696e646578206973206f7574206f6620626f756e6473a165627a7a72305820165389be1862e9c7d3f3c59b4859e1992e92c883323aef9b5d8c73f0036e8e290029",
    "source": "pragma solidity >=0.5.0 <0.6.0;\n\nimport \"openzeppelin-solidity/contracts/math/SafeMath.sol\";\nimport \"openzeppelin-solidity/contracts/ownership/Ownable.sol\";\n\nimport \"./NoteRegistry.sol\";\n\nimport \"../interfaces/IAZTEC.sol\";\n\nimport \"../libs/NoteUtils.sol\";\nimport \"../libs/ProofUtils.sol\";\nimport \"../libs/SafeMath8.sol\";\n\n/**\n * @title The AZTEC Cryptography Engine\n * @author AZTEC\n * @dev ACE validates the AZTEC protocol's family of zero-knowledge proofs, which enables\n *      digital asset builders to construct fungible confidential digital assets according to the AZTEC token standard.\n * Copyright Spilsbury Holdings Ltd 2019. All rights reserved.\n **/\ncontract ACE is IAZTEC, Ownable, NoteRegistry {\n    using NoteUtils for bytes;\n    using ProofUtils for uint24;\n    using SafeMath for uint256;\n    using SafeMath8 for uint8;\n\n    // keccak256 hash of \"JoinSplitSignature(uint24 proof,bytes32 noteHash,uint256 challenge,address sender)\"\n    bytes32 constant internal JOIN_SPLIT_SIGNATURE_TYPE_HASH =\n        0xf671f176821d4c6f81e66f9704cdf2c5c12d34bd23561179229c9fe7a9e85462;\n    event SetCommonReferenceString(bytes32[6] _commonReferenceString);\n    event SetProof(\n        uint8 indexed epoch, \n        uint8 indexed category, \n        uint8 indexed id, \n        address validatorAddress\n    );\n    event IncrementLatestEpoch(uint8 newLatestEpoch);\n\n    // The commonReferenceString contains one G1 group element and one G2 group element,\n    // that are created via the AZTEC protocol's trusted setup. All zero-knowledge proofs supported\n    // by ACE use the same common reference string.\n    bytes32[6] private commonReferenceString;\n\n    // `validators`contains the addresses of the contracts that validate specific proof types\n    address[0x100][0x100][0x10000] public validators;\n\n    // a list of invalidated proof ids, used to blacklist proofs in the case of a vulnerability being discovered\n    bool[0x100][0x100][0x10000] public disabledValidators;\n    \n    // latest proof epoch accepted by this contract\n    uint8 public latestEpoch = 1;\n\n    // keep track of validated balanced proofs\n    mapping(bytes32 => bool) public validatedProofs;\n    \n    /**\n    * @dev contract constructor. Sets the owner of ACE\n    **/\n    constructor() public Ownable() {}\n\n    /**\n    * @dev Mint AZTEC notes\n    *      \n    * @param _proof the AZTEC proof object\n    * @param _proofData the mint proof construction data\n    * @param _proofSender the Ethereum address of the original transaction sender. It is explicitly assumed that\n    *        an asset using ACE supplies this field correctly - if they don't their asset is vulnerable to front-running\n    * Unnamed param is the AZTEC zero-knowledge proof data\n    * @return two `bytes` objects. The first contains the new confidentialTotalSupply note and the second contains the\n    * notes that were created. Returned so that a zkAsset can emit the appropriate events\n    */\n    function mint(\n        uint24 _proof,\n        bytes calldata _proofData,\n        address _proofSender\n    ) external returns (bytes memory) {\n        \n        Registry storage registry = registries[msg.sender];\n        require(registry.flags.active == true, \"note registry does not exist for the given address\");\n        require(registry.flags.canAdjustSupply == true, \"this asset is not mintable\");\n        \n        // Check that it's a mintable proof\n        (, uint8 category, ) = _proof.getProofComponents();\n\n        require(category == uint8(ProofCategory.MINT), \"this is not a mint proof\");\n\n        bytes memory _proofOutputs = this.validateProof(_proof, _proofSender, _proofData);\n        require(_proofOutputs.getLength() > 0, \"call to validateProof failed\");\n\n        // Dealing with notes representing totals\n        (bytes memory oldTotal,  // inputNotesTotal\n        bytes memory newTotal, // outputNotesTotal\n        ,\n        ) = _proofOutputs.get(0).extractProofOutput();\n\n        // Check the previous confidentialTotalSupply, and then assign the new one\n        (, bytes32 oldTotalNoteHash, ) = oldTotal.get(0).extractNote();        \n\n        require(oldTotalNoteHash == registry.confidentialTotalMinted, \"provided total minted note does not match\");\n        (, bytes32 newTotalNoteHash, ) = newTotal.get(0).extractNote();\n        registry.confidentialTotalMinted = newTotalNoteHash;\n\n        // Dealing with minted notes\n        (,\n        bytes memory mintedNotes, // output notes\n        ,\n        ) = _proofOutputs.get(1).extractProofOutput();\n\n        updateOutputNotes(mintedNotes);\n        return(_proofOutputs);\n    }\n\n    /**\n    * @dev Burn AZTEC notes\n    *      \n    * @param _proof the AZTEC proof object\n    * @param _proofData the burn proof construction data\n    * @param _proofSender the Ethereum address of the original transaction sender. It is explicitly assumed that\n    *        an asset using ACE supplies this field correctly - if they don't their asset is vulnerable to front-running\n    * Unnamed param is the AZTEC zero-knowledge proof data\n    * @return two `bytes` objects. The first contains the new confidentialTotalSupply note and the second contains the\n    * notes that were created. Returned so that a zkAsset can emit the appropriate events\n    */\n    function burn(\n        uint24 _proof,\n        bytes calldata _proofData,\n        address _proofSender\n    ) external returns (bytes memory) {\n        \n        Registry storage registry = registries[msg.sender];\n        require(registry.flags.active == true, \"note registry does not exist for the given address\");\n        require(registry.flags.canAdjustSupply == true, \"this asset is not burnable\");\n        \n        // Check that it's a burnable proof\n        (, uint8 category, ) = _proof.getProofComponents();\n\n        require(category == uint8(ProofCategory.BURN), \"this is not a burn proof\");\n\n        bytes memory _proofOutputs = this.validateProof(_proof, _proofSender, _proofData);\n        \n        // Dealing with notes representing totals\n        (bytes memory oldTotal, // input notes\n        bytes memory newTotal, // output notes\n        ,\n        ) = _proofOutputs.get(0).extractProofOutput();\n    \n        (, bytes32 oldTotalNoteHash, ) = oldTotal.get(0).extractNote();        \n        require(oldTotalNoteHash == registry.confidentialTotalBurned, \"provided total burned note does not match\");\n        (, bytes32 newTotalNoteHash, ) = newTotal.get(0).extractNote();\n        registry.confidentialTotalBurned = newTotalNoteHash;\n\n        // Dealing with burned notes\n        (,\n        bytes memory burnedNotes,\n        ,) = _proofOutputs.get(1).extractProofOutput();\n\n        // Although they are outputNotes, they are due to be destroyed - need removing from the note registry\n        updateInputNotes(burnedNotes);\n        return(_proofOutputs);\n    }\n\n    /**\n    * @dev Validate an AZTEC zero-knowledge proof. ACE will issue a validation transaction to the smart contract\n    *      linked to `_proof`. The validator smart contract will have the following interface:\n    *      \n    *      function validate(\n    *          bytes _proofData, \n    *          address _sender, \n    *          bytes32[6] _commonReferenceString\n    *      ) public returns (bytes)\n    *\n    * @param _proof the AZTEC proof object\n    * @param _sender the Ethereum address of the original transaction sender. It is explicitly assumed that\n    *        an asset using ACE supplies this field correctly - if they don't their asset is vulnerable to front-running\n    * Unnamed param is the AZTEC zero-knowledge proof data\n    * @return a `bytes proofOutputs` variable formatted according to the Cryptography Engine standard\n    */\n    function validateProof(uint24 _proof, address _sender, bytes calldata) external returns (bytes memory) {\n        require(_proof != 0, \"expected the proof to be valid\");\n        // validate that the provided _proof object maps to a corresponding validator and also that\n        // the validator is not disabled\n        address validatorAddress = getValidatorAddress(_proof);\n        bytes memory proofOutputs;\n        assembly {\n            // the first evm word of the 3rd function param is the abi encoded location of proof data\n            let proofDataLocation := add(0x04, calldataload(0x44))\n\n            // manually construct validator calldata map\n            let memPtr := mload(0x40)\n            mstore(add(memPtr, 0x04), 0x100) // location in calldata of the start of `bytes _proofData` (0x100)\n            mstore(add(memPtr, 0x24), _sender)\n            mstore(add(memPtr, 0x44), sload(commonReferenceString_slot))\n            mstore(add(memPtr, 0x64), sload(add(0x01, commonReferenceString_slot)))\n            mstore(add(memPtr, 0x84), sload(add(0x02, commonReferenceString_slot)))\n            mstore(add(memPtr, 0xa4), sload(add(0x03, commonReferenceString_slot)))\n            mstore(add(memPtr, 0xc4), sload(add(0x04, commonReferenceString_slot)))\n            mstore(add(memPtr, 0xe4), sload(add(0x05, commonReferenceString_slot)))\n\n            // 0x104 because there's an address, the length 6 and the static array items\n            let destination := add(memPtr, 0x104)\n            // note that we offset by 0x20 because the first word is the length of the dynamic bytes array\n            let proofDataSize := add(calldataload(proofDataLocation), 0x20)\n            // copy the calldata into memory so we can call the validator contract\n            calldatacopy(destination, proofDataLocation, proofDataSize)\n            // call our validator smart contract, and validate the call succeeded\n            let callSize := add(proofDataSize, 0x104)\n            switch staticcall(gas, validatorAddress, memPtr, callSize, 0x00, 0x00)\n            case 0 {\n                mstore(0x00, 400) revert(0x00, 0x20) // call failed because proof is invalid\n            }\n\n            // copy returndata to memory\n            returndatacopy(memPtr, 0x00, returndatasize)\n            // store the proof outputs in memory\n            mstore(0x40, add(memPtr, returndatasize))\n            // the first evm word in the memory pointer is the abi encoded location of the actual returned data\n            proofOutputs := add(memPtr, mload(memPtr))\n        }\n\n        // if this proof satisfies a balancing relationship, we need to record the proof hash\n        if (((_proof >> 8) & 0xff) == uint8(ProofCategory.BALANCED)) {\n            uint256 length = proofOutputs.getLength();\n            for (uint256 i = 0; i < length; i += 1) {\n                bytes32 proofHash = keccak256(proofOutputs.get(i));\n                bytes32 validatedProofHash = keccak256(abi.encode(proofHash, _proof, msg.sender));\n                validatedProofs[validatedProofHash] = true;\n            }\n        }\n        return proofOutputs;\n    }\n\n    /**\n    * @dev Clear storage variables set when validating zero-knowledge proofs.\n    *      The only address that can clear data from `validatedProofs` is the address that created the proof.\n    *      Function is designed to utilize [EIP-1283](https://github.com/ethereum/EIPs/blob/master/EIPS/eip-1283.md)\n    *      to reduce gas costs. It is highly likely that any storage variables set by `validateProof`\n    *      are only required for the duration of a single transaction.\n    *      E.g. a decentralized exchange validating a swap proof and sending transfer instructions to\n    *      two confidential assets.\n    *      This method allows the calling smart contract to recover most of the gas spent by setting `validatedProofs`\n    * @param _proof the AZTEC proof object\n    * @param _proofHashes dynamic array of proof hashes\n    */\n    function clearProofByHashes(uint24 _proof, bytes32[] calldata _proofHashes) external {\n        uint256 length = _proofHashes.length;\n        for (uint256 i = 0; i < length; i += 1) {\n            bytes32 proofHash = _proofHashes[i];\n            require(proofHash != bytes32(0x0), \"expected no empty proof hash\");\n            bytes32 validatedProofHash = keccak256(abi.encode(proofHash, _proof, msg.sender));\n            require(validatedProofs[validatedProofHash] == true, \"can only clear previously validated proofs\");\n            validatedProofs[validatedProofHash] = false;\n        }\n    }\n\n    /**\n    * @dev Set the common reference string.\n    *      If the trusted setup is re-run, we will need to be able to change the crs\n    * @param _commonReferenceString the new commonReferenceString\n    */\n    function setCommonReferenceString(bytes32[6] memory _commonReferenceString) public {\n        require(isOwner(), \"only the owner can set the common reference string\");\n        commonReferenceString = _commonReferenceString;\n        emit SetCommonReferenceString(_commonReferenceString);\n    }\n\n    /**\n    * @dev Forever invalidate the given proof.\n    * @param _proof the AZTEC proof object\n    */\n    function invalidateProof(uint24 _proof) public {\n        require(isOwner(), \"only the owner can invalidate a proof\");\n        (uint8 epoch, uint8 category, uint8 id) = _proof.getProofComponents();\n        require(validators[epoch][category][id] != address(0x0), \"can only invalidate proofs that exist\");\n        disabledValidators[epoch][category][id] = true;\n    }\n\n    /**\n    * @dev Validate a previously validated AZTEC proof via its hash\n    *      This enables confidential assets to receive transfer instructions from a dApp that\n    *      has already validated an AZTEC proof that satisfies a balancing relationship.\n    * @param _proof the AZTEC proof object\n    * @param _proofHash the hash of the `proofOutput` received by the asset\n    * @param _sender the Ethereum address of the contract issuing the transfer instruction\n    * @return a boolean that signifies whether the corresponding AZTEC proof has been validated\n    */\n    function validateProofByHash(\n        uint24 _proof,\n        bytes32 _proofHash,\n        address _sender\n    ) public view returns (bool) {\n        // We need create a unique encoding of _proof, _proofHash and _sender,\n        // and use as a key to access validatedProofs\n        // We do this by computing bytes32 validatedProofHash = keccak256(ABI.encode(_proof, _proofHash, _sender))\n        // We also need to access disabledValidators[_proof.epoch][_proof.category][_proof.id]\n        // This bit is implemented in Yul, as 3-dimensional array access chews through\n        // a lot of gas in Solidity, as does ABI.encode\n        bytes32 validatedProofHash;\n        bool isValidatorDisabled;\n        assembly {\n            // inside _proof, we have 3 packed variables : [epoch, category, id]\n            // each is a uint8.\n\n            // We need to compute the storage key for `disabledValidators[epoch][category][id]`\n            // Type of array is bool[0x100][0x100][0x100]\n            // Solidity will only squish 32 boolean variables into a single storage slot, not 256\n            // => result of disabledValidators[epoch][category] is stored in 0x08 storage slots\n            // => result of disabledValidators[epoch] is stored in 0x08 * 0x100 = 0x800 storage slots\n\n            // To compute the storage slot  disabledValidators[epoch][category][id], we do the following:\n            // 1. get the disabledValidators slot \n            // 2. add (epoch * 0x800) to the slot (or epoch << 11)\n            // 3. add (category * 0x08) to the slot (or category << 3)\n            // 4. add (id / 0x20) to the slot (or id >> 5)\n\n            // Once the storage slot has been loaded, we need to isolate the byte that contains our boolean\n            // This will be equal to id % 0x20, which is also id & 0x1f\n\n            // Putting this all together. The storage slot offset from '_proof' is...\n            // epoch: ((_proof & 0xff0000) >> 16) << 11 = ((_proof & 0xff0000) >> 5)\n            // category: ((_proof & 0xff00) >> 8) << 3 = ((_proof & 0xff00) >> 5)\n            // id: (_proof & 0xff) >> 5\n            // i.e. the storage slot offset = _proof >> 5\n\n            // the byte index of the storage word that we require, is equal to (_proof & 0x1f)\n            // to convert to a bit index, we multiply by 8\n            // i.e. bit index = shl(3, and(_proof & 0x1f))\n            // => result = shr(shl(3, and_proof & 0x1f), value)\n            isValidatorDisabled := \n                shr(\n                    shl(\n                        0x03,\n                        and(_proof, 0x1f)\n                    ),\n                    sload(add(shr(5, _proof), disabledValidators_slot))\n                )\n\n            // Next, compute validatedProofHash = keccak256(abi.encode(_proofHash, _proof, _sender))\n            // cache free memory pointer - we will overwrite it when computing hash (cheaper than using free memory)\n            let memPtr := mload(0x40)\n            mstore(0x00, _proofHash)\n            mstore(0x20, _proof)\n            mstore(0x40, _sender)\n            validatedProofHash := keccak256(0x00, 0x60)\n            mstore(0x40, memPtr) // restore the free memory pointer\n        }\n        require(isValidatorDisabled == false, \"proof id has been invalidated\");\n        return validatedProofs[validatedProofHash];\n    }\n\n    /**\n    * @dev Adds or modifies a proof into the Cryptography Engine.\n    *       This method links a given `_proof` to a smart contract validator.\n    * @param _proof the AZTEC proof object\n    * @param _validatorAddress the address of the smart contract validator\n    */\n    function setProof(\n        uint24 _proof,\n        address _validatorAddress\n    ) public {\n        require(isOwner(), \"only the owner can set a proof\");\n        require(_validatorAddress != address(0x0), \"expected the validator address to exist\");\n        (uint8 epoch, uint8 category, uint8 id) = _proof.getProofComponents();\n        require(epoch <= latestEpoch, \"the proof epoch cannot be bigger than the latest epoch\");\n        require(validators[epoch][category][id] == address(0x0), \"existing proofs cannot be modified\");\n        validators[epoch][category][id] = _validatorAddress;\n        emit SetProof(epoch, category, id, _validatorAddress);\n    }\n\n    /**\n     * @dev Increments the `latestEpoch` storage variable.\n     */\n    function incrementLatestEpoch() public {\n        require(isOwner(), \"only the owner can update the latest epoch\");\n        latestEpoch = latestEpoch.add(1);\n        emit IncrementLatestEpoch(latestEpoch);\n    }\n\n    /**\n    * @dev Returns the common reference string.\n    * We use a custom getter for `commonReferenceString` - the default getter created by making the storage\n    * variable public indexes individual elements of the array, and we want to return the whole array\n    */\n    function getCommonReferenceString() public view returns (bytes32[6] memory) {\n        return commonReferenceString;\n    }\n\n    function getValidatorAddress(uint24 _proof) public view returns (address validatorAddress) {\n        bool isValidatorDisabled;\n        bool queryInvalid;\n        assembly {\n            // To compute the storage key for validatorAddress[epoch][category][id], we do the following:\n            // 1. get the validatorAddress slot \n            // 2. add (epoch * 0x10000) to the slot\n            // 3. add (category * 0x100) to the slot\n            // 4. add (id) to the slot\n            // i.e. the range of storage pointers allocated to validatorAddress ranges from\n            // validatorAddress_slot to (0xffff * 0x10000 + 0xff * 0x100 + 0xff = validatorAddress_slot 0xffffffff)\n\n            // Conveniently, the multiplications we have to perform on epoch, category and id correspond\n            // to their byte positions in _proof.\n            // i.e. (epoch * 0x10000) = and(_proof, 0xffff0000)\n            // and  (category * 0x100) = and(_proof, 0xff00)\n            // and  (id) = and(_proof, 0xff)\n\n            // Putting this all together. The storage slot offset from '_proof' is...\n            // (_proof & 0xffff0000) + (_proof & 0xff00) + (_proof & 0xff)\n            // i.e. the storage slot offset IS the value of _proof\n            validatorAddress := sload(add(_proof, validators_slot))\n            queryInvalid := or(iszero(validatorAddress), isValidatorDisabled)\n        }\n\n        // wrap both require checks in a single if test. This means the happy path only has 1 conditional jump\n        if (queryInvalid) {\n            require(validatorAddress != address(0x0), \"expected the validator address to exist\");\n            require(isValidatorDisabled == false, \"expected the validator address to not be disabled\");\n        }\n    }\n}\n\n",
    "sourcePath": "/home/tezansahu/Tezan/Github Repos/LendZ/contracts/AZTEC/ACE/ACE.sol",
    "compiler": {
        "name": "solc",
        "version": "0.5.7+commit.6da8b019.Emscripten.clang"
    },
    "schemaVersion": "3.0.11",
    "updatedAt": "2019-08-03T15:31:50.173Z",
    "devdoc": {
        "author": "AZTEC",
        "details": "ACE validates the AZTEC protocol's family of zero-knowledge proofs, which enables     digital asset builders to construct fungible confidential digital assets according to the AZTEC token standard. Copyright Spilsbury Holdings Ltd 2019. All rights reserved.*",
        "methods": {
            "burn(uint24,bytes,address)": {
                "details": "Burn AZTEC notes     ",
                "params": {
                    "_proof": "the AZTEC proof object",
                    "_proofData": "the burn proof construction data",
                    "_proofSender": "the Ethereum address of the original transaction sender. It is explicitly assumed that       an asset using ACE supplies this field correctly - if they don't their asset is vulnerable to front-running Unnamed param is the AZTEC zero-knowledge proof data"
                },
                "return": "two `bytes` objects. The first contains the new confidentialTotalSupply note and the second contains the notes that were created. Returned so that a zkAsset can emit the appropriate events"
            },
            "clearProofByHashes(uint24,bytes32[])": {
                "details": "Clear storage variables set when validating zero-knowledge proofs.     The only address that can clear data from `validatedProofs` is the address that created the proof.     Function is designed to utilize [EIP-1283](https://github.com/ethereum/EIPs/blob/master/EIPS/eip-1283.md)     to reduce gas costs. It is highly likely that any storage variables set by `validateProof`     are only required for the duration of a single transaction.     E.g. a decentralized exchange validating a swap proof and sending transfer instructions to     two confidential assets.     This method allows the calling smart contract to recover most of the gas spent by setting `validatedProofs`",
                "params": {
                    "_proof": "the AZTEC proof object",
                    "_proofHashes": "dynamic array of proof hashes"
                }
            },
            "constructor": {
                "details": "contract constructor. Sets the owner of ACE*"
            },
            "getCommonReferenceString()": {
                "details": "Returns the common reference string. We use a custom getter for `commonReferenceString` - the default getter created by making the storage variable public indexes individual elements of the array, and we want to return the whole array"
            },
            "getNote(address,bytes32)": {
                "details": "Returns the note for a given address and note hash.",
                "params": {
                    "_noteHash": "- keccak256 hash of the note coordiantes (gamma and sigma)",
                    "_registryOwner": "- address of the registry owner"
                },
                "return": "status - status of the note, details whether the note is in a note registry or has been destroyedcreatedOn - time the note was createddestroyedOn - time the note was destroyednoteOwner - address of the note owner"
            },
            "getRegistry(address)": {
                "details": "Returns the registry for a given address.",
                "params": {
                    "_owner": "- address of the registry owner in question"
                },
                "return": "linkedTokenAddress - public ERC20 token that is linked to the NoteRegistry. This is used to transfer public value into and out of the system     scalingFactor - defines how many ERC20 tokens are represented by one AZTEC notetotalSupply - TODOconfidentialTotalMinted - keccak256 hash of the note representing the total minted supplyconfidentialTotalBurned - keccak256 hash of the note representing the total burned supplycanConvert - flag set by the owner to decide whether the registry has public to private, and  vice versa, conversion privilegecanAdjustSupply - determines whether the registry has minting and burning privileges "
            },
            "incrementLatestEpoch()": {
                "details": "Increments the `latestEpoch` storage variable."
            },
            "invalidateProof(uint24)": {
                "details": "Forever invalidate the given proof.",
                "params": {
                    "_proof": "the AZTEC proof object"
                }
            },
            "isOwner()": {
                "return": "true if `msg.sender` is the owner of the contract."
            },
            "mint(uint24,bytes,address)": {
                "details": "Mint AZTEC notes     ",
                "params": {
                    "_proof": "the AZTEC proof object",
                    "_proofData": "the mint proof construction data",
                    "_proofSender": "the Ethereum address of the original transaction sender. It is explicitly assumed that       an asset using ACE supplies this field correctly - if they don't their asset is vulnerable to front-running Unnamed param is the AZTEC zero-knowledge proof data"
                },
                "return": "two `bytes` objects. The first contains the new confidentialTotalSupply note and the second contains the notes that were created. Returned so that a zkAsset can emit the appropriate events"
            },
            "owner()": {
                "return": "the address of the owner."
            },
            "publicApprove(address,bytes32,uint256)": {
                "details": "This should be called from an asset contract."
            },
            "renounceOwnership()": {
                "details": "Allows the current owner to relinquish control of the contract. It will not be possible to call the functions with the `onlyOwner` modifier anymore."
            },
            "setCommonReferenceString(bytes32[6])": {
                "details": "Set the common reference string.     If the trusted setup is re-run, we will need to be able to change the crs",
                "params": {
                    "_commonReferenceString": "the new commonReferenceString"
                }
            },
            "setProof(uint24,address)": {
                "details": "Adds or modifies a proof into the Cryptography Engine.      This method links a given `_proof` to a smart contract validator.",
                "params": {
                    "_proof": "the AZTEC proof object",
                    "_validatorAddress": "the address of the smart contract validator"
                }
            },
            "supplementTokens(uint256)": {
                "details": "Call transferFrom on a linked ERC20 token. Used in cases where the ACE's mint function is called but the token balance of the note registry in question is insufficient",
                "params": {
                    "_value": "the value to be transferred"
                }
            },
            "transferOwnership(address)": {
                "details": "Allows the current owner to transfer control of the contract to a newOwner.",
                "params": {
                    "newOwner": "The address to transfer ownership to."
                }
            },
            "updateNoteRegistry(uint24,bytes,address)": {
                "details": "Update the state of the note registry according to transfer instructions issued by a  zero-knowledge proof",
                "params": {
                    "_proof": "- unique identifier for a proof",
                    "_proofOutput": "- transfer instructions issued by a zero-knowledge proof",
                    "_proofSender": "- address of the entity sending the proof"
                }
            },
            "validateProof(uint24,address,bytes)": {
                "details": "Validate an AZTEC zero-knowledge proof. ACE will issue a validation transaction to the smart contract     linked to `_proof`. The validator smart contract will have the following interface:          function validate(         bytes _proofData,          address _sender,          bytes32[6] _commonReferenceString     ) public returns (bytes)",
                "params": {
                    "_proof": "the AZTEC proof object",
                    "_sender": "the Ethereum address of the original transaction sender. It is explicitly assumed that       an asset using ACE supplies this field correctly - if they don't their asset is vulnerable to front-running Unnamed param is the AZTEC zero-knowledge proof data"
                },
                "return": "a `bytes proofOutputs` variable formatted according to the Cryptography Engine standard"
            },
            "validateProofByHash(uint24,bytes32,address)": {
                "details": "Validate a previously validated AZTEC proof via its hash     This enables confidential assets to receive transfer instructions from a dApp that     has already validated an AZTEC proof that satisfies a balancing relationship.",
                "params": {
                    "_proof": "the AZTEC proof object",
                    "_proofHash": "the hash of the `proofOutput` received by the asset",
                    "_sender": "the Ethereum address of the contract issuing the transfer instruction"
                },
                "return": "a boolean that signifies whether the corresponding AZTEC proof has been validated"
            }
        },
        "title": "The AZTEC Cryptography Engine"
    },
    "userdoc": {
        "methods": {
            "renounceOwnership()": {
                "notice": "Renouncing ownership will leave the contract without an owner, thereby removing any functionality that is only available to the owner."
            }
        }
    }
}