{
    "contractName": "Kernel",
    "abi": [
        {
            "constant": true,
            "inputs": [
                {
                    "name": "",
                    "type": "bytes32"
                }
            ],
            "name": "kernels_filled",
            "outputs": [
                {
                    "name": "",
                    "type": "bool"
                }
            ],
            "payable": false,
            "stateMutability": "view",
            "type": "function"
        },
        {
            "constant": true,
            "inputs": [
                {
                    "name": "",
                    "type": "bytes32"
                }
            ],
            "name": "kernels_cancelled",
            "outputs": [
                {
                    "name": "",
                    "type": "bool"
                }
            ],
            "payable": false,
            "stateMutability": "view",
            "type": "function"
        },
        {
            "constant": true,
            "inputs": [
                {
                    "name": "_addresses",
                    "type": "address[6]"
                },
                {
                    "name": "_intValues",
                    "type": "uint256[4]"
                },
                {
                    "name": "_bytesData",
                    "type": "bytes32[3]"
                }
            ],
            "name": "kernel_hash",
            "outputs": [
                {
                    "name": "",
                    "type": "bytes32"
                }
            ],
            "payable": false,
            "stateMutability": "view",
            "type": "function"
        },
        {
            "constant": false,
            "inputs": [
                {
                    "name": "_addresses",
                    "type": "address[6]"
                },
                {
                    "name": "_intValues",
                    "type": "uint256[6]"
                },
                {
                    "name": "_noteHashes",
                    "type": "bytes32[3]"
                },
                {
                    "name": "_is_creator_lender",
                    "type": "bool"
                },
                {
                    "name": "_kernel_creator_salt",
                    "type": "bytes32"
                }
            ],
            "name": "fill",
            "outputs": [],
            "payable": false,
            "stateMutability": "nonpayable",
            "type": "function"
        },
        {
            "constant": false,
            "inputs": [
                {
                    "name": "_addresses",
                    "type": "address[6]"
                },
                {
                    "name": "_noteHashes",
                    "type": "bytes32[2]"
                },
                {
                    "name": "_intValues",
                    "type": "uint256[5]"
                },
                {
                    "name": "_kernel_creator_salt",
                    "type": "bytes32"
                }
            ],
            "name": "cancel",
            "outputs": [],
            "payable": false,
            "stateMutability": "nonpayable",
            "type": "function"
        }
    ],
    "bytecode": "0x608060405234801561001057600080fd5b506110b7806100206000396000f3fe608060405234801561001057600080fd5b50600436106100575760003560e01c80631a363c6a1461005c5780634650f7b31461014e578063700ce6e71461024c57806382b4588714610292578063f1b41a3b1461038e575b600080fd5b61014c60048036036101c081101561007357600080fd5b810190808060c001906006806020026040519081016040528092919082600660200280828437600081840152601f19601f820116905080830192505050505050919291929080604001906002806020026040519081016040528092919082600260200280828437600081840152601f19601f82011690508083019250505050505091929192908060a001906005806020026040519081016040528092919082600560200280828437600081840152601f19601f8201169050808301925050505050509192919290803590602001909291905050506103d4565b005b61024a600480360361022081101561016557600080fd5b810190808060c001906006806020026040519081016040528092919082600660200280828437600081840152601f19601f82011690508083019250505050505091929192908060c001906006806020026040519081016040528092919082600660200280828437600081840152601f19601f820116905080830192505050505050919291929080606001906003806020026040519081016040528092919082600360200280828437600081840152601f19601f82011690508083019250505050505091929192908035151590602001909291908035906020019092919050505061075f565b005b6102786004803603602081101561026257600080fd5b8101908080359060200190929190505050610c96565b604051808215151515815260200191505060405180910390f35b61037860048036036101a08110156102a957600080fd5b810190808060c001906006806020026040519081016040528092919082600660200280828437600081840152601f19601f820116905080830192505050505050919291929080608001906004806020026040519081016040528092919082600460200280828437600081840152601f19601f820116905080830192505050505050919291929080606001906003806020026040519081016040528092919082600360200280828437600081840152601f19601f8201169050808301925050505050509192919290505050610cb6565b6040518082815260200191505060405180910390f35b6103ba600480360360208110156103a457600080fd5b8101908080359060200190929190505050610f76565b604051808215151515815260200191505060405180910390f35b6103dc610f96565b604051806101a00160405280600073ffffffffffffffffffffffffffffffffffffffff1681526020018660016006811061041257fe5b602002015173ffffffffffffffffffffffffffffffffffffffff1681526020018660026006811061043f57fe5b602002015173ffffffffffffffffffffffffffffffffffffffff1681526020018660036006811061046c57fe5b602002015173ffffffffffffffffffffffffffffffffffffffff1681526020018660046006811061049957fe5b602002015173ffffffffffffffffffffffffffffffffffffffff168152602001866005600681106104c657fe5b602002015173ffffffffffffffffffffffffffffffffffffffff168152602001856000600281106104f357fe5b602002015181526020018560016002811061050a57fe5b602002015181526020018460006005811061052157fe5b602002015181526020018381526020018460036005811061053e57fe5b602002015181526020018460026005811061055557fe5b602002015181526020018460046005811061056c57fe5b60200201518152509050600061072a6040518060c00160405280846000015173ffffffffffffffffffffffffffffffffffffffff1673ffffffffffffffffffffffffffffffffffffffff168152602001846020015173ffffffffffffffffffffffffffffffffffffffff1673ffffffffffffffffffffffffffffffffffffffff168152602001846040015173ffffffffffffffffffffffffffffffffffffffff1673ffffffffffffffffffffffffffffffffffffffff168152602001846060015173ffffffffffffffffffffffffffffffffffffffff1673ffffffffffffffffffffffffffffffffffffffff168152602001846080015173ffffffffffffffffffffffffffffffffffffffff1673ffffffffffffffffffffffffffffffffffffffff1681526020018460a0015173ffffffffffffffffffffffffffffffffffffffff1673ffffffffffffffffffffffffffffffffffffffff16815250604051806080016040528085610100015181526020018561014001518152602001856101600151815260200185610180015181525060405180606001604052808660c0015181526020018660e001518152602001866101200151815250610cb6565b9050600180600083815260200190815260200160002060006101000a81548160ff021916908315150217905550505050505050565b600073ffffffffffffffffffffffffffffffffffffffff168560006006811061078457fe5b602002015173ffffffffffffffffffffffffffffffffffffffff1614156107aa57600080fd5b600073ffffffffffffffffffffffffffffffffffffffff16856001600681106107cf57fe5b602002015173ffffffffffffffffffffffffffffffffffffffff1614156107f557600080fd5b60008560016006811061080457fe5b60200201519050610813610f96565b604051806101a00160405280600073ffffffffffffffffffffffffffffffffffffffff1681526020018860016006811061084957fe5b602002015173ffffffffffffffffffffffffffffffffffffffff1681526020018860026006811061087657fe5b602002015173ffffffffffffffffffffffffffffffffffffffff168152602001886003600681106108a357fe5b602002015173ffffffffffffffffffffffffffffffffffffffff168152602001886004600681106108d057fe5b602002015173ffffffffffffffffffffffffffffffffffffffff168152602001886005600681106108fd57fe5b602002015173ffffffffffffffffffffffffffffffffffffffff1681526020018660006003811061092a57fe5b602002015181526020018660016003811061094157fe5b602002015181526020018760006006811061095857fe5b602002015181526020018481526020018760036006811061097557fe5b602002015181526020018760026006811061098c57fe5b60200201518152602001876005600681106109a357fe5b602002015181525090508315610a4a57866000600681106109c057fe5b60200201519150866000600681106109d457fe5b6020020151816000019073ffffffffffffffffffffffffffffffffffffffff16908173ffffffffffffffffffffffffffffffffffffffff16815250506000816020019073ffffffffffffffffffffffffffffffffffffffff16908173ffffffffffffffffffffffffffffffffffffffff16815250505b600073ffffffffffffffffffffffffffffffffffffffff16816060015173ffffffffffffffffffffffffffffffffffffffff161415610a8857600080fd5b4281610140015111610a9957600080fd5b600081610160015111610aab57600080fd5b6000610c5f6040518060c00160405280846000015173ffffffffffffffffffffffffffffffffffffffff1673ffffffffffffffffffffffffffffffffffffffff168152602001846020015173ffffffffffffffffffffffffffffffffffffffff1673ffffffffffffffffffffffffffffffffffffffff168152602001846040015173ffffffffffffffffffffffffffffffffffffffff1673ffffffffffffffffffffffffffffffffffffffff168152602001846060015173ffffffffffffffffffffffffffffffffffffffff1673ffffffffffffffffffffffffffffffffffffffff168152602001846080015173ffffffffffffffffffffffffffffffffffffffff1673ffffffffffffffffffffffffffffffffffffffff1681526020018460a0015173ffffffffffffffffffffffffffffffffffffffff1673ffffffffffffffffffffffffffffffffffffffff16815250604051806080016040528085610100015181526020018561014001518152602001856101600151815260200185610180015181525060405180606001604052808660c0015181526020018660e001518152602001866101200151815250610cb6565b9050600160008083815260200190815260200160002060006101000a81548160ff0219169083151502179055505050505050505050565b60006020528060005260406000206000915054906101000a900460ff1681565b60003084600060068110610cc657fe5b602002015185600160068110610cd857fe5b602002015186600260068110610cea57fe5b602002015187600360068110610cfc57fe5b602002015188600460068110610d0e57fe5b602002015189600560068110610d2057fe5b602002015188600060038110610d3257fe5b602002015189600160038110610d4457fe5b60200201518b600060048110610d5657fe5b60200201518b600260038110610d6857fe5b60200201518d600160048110610d7a57fe5b60200201518e600260048110610d8c57fe5b60200201518f600360048110610d9e57fe5b6020020151604051602001808f73ffffffffffffffffffffffffffffffffffffffff1673ffffffffffffffffffffffffffffffffffffffff1660601b81526014018e73ffffffffffffffffffffffffffffffffffffffff1673ffffffffffffffffffffffffffffffffffffffff1660601b81526014018d73ffffffffffffffffffffffffffffffffffffffff1673ffffffffffffffffffffffffffffffffffffffff1660601b81526014018c73ffffffffffffffffffffffffffffffffffffffff1673ffffffffffffffffffffffffffffffffffffffff1660601b81526014018b73ffffffffffffffffffffffffffffffffffffffff1673ffffffffffffffffffffffffffffffffffffffff1660601b81526014018a73ffffffffffffffffffffffffffffffffffffffff1673ffffffffffffffffffffffffffffffffffffffff1660601b81526014018973ffffffffffffffffffffffffffffffffffffffff1673ffffffffffffffffffffffffffffffffffffffff1660601b81526014018881526020018781526020018681526020018581526020018481526020018381526020018281526020019e5050505050505050505050505050506040516020818303038152906040528051906020012090509392505050565b60016020528060005260406000206000915054906101000a900460ff1681565b604051806101a00160405280600073ffffffffffffffffffffffffffffffffffffffff168152602001600073ffffffffffffffffffffffffffffffffffffffff168152602001600073ffffffffffffffffffffffffffffffffffffffff168152602001600073ffffffffffffffffffffffffffffffffffffffff168152602001600073ffffffffffffffffffffffffffffffffffffffff168152602001600073ffffffffffffffffffffffffffffffffffffffff16815260200160008019168152602001600080191681526020016000815260200160008019168152602001600081526020016000815260200160008152509056fea165627a7a723058204ca7b38522a1d98eab28343029db67afd39ec3c73d6140c71c0437779fc0bd6d0029",
    "source": "pragma solidity ^0.5.7;\n\ncontract Kernel{\n    // struct representing a kernel\n    struct kernel{\n        address lender;\n        address borrower;\n        address relayer;\n        address wrangler;\n        address borrow_currency_address;\n        address lend_currency_address;\n        // uint256 lend_currency_offered_value;\n\n        // One of the notes below will actually be a dummy note, to be used just for comparison later\n        bytes32 lend_currency_noteHash;\n        bytes32 borrow_currency_noteHash;\n        // uint256 relayer_fee;\n        uint256 monitoring_fee;\n        // uint256 rollover_fee;\n        // uint256 closure_fee;\n        bytes32 salt;\n        uint256 expires_at;\n        uint256 daily_interest_rate;\n        uint256 position_duration_in_seconds;\n    }\n\n    mapping(bytes32 => bool) public kernels_filled;\n    mapping(bytes32 => bool)  public kernels_cancelled;\n\n    function kernel_hash(\n            address[6] memory _addresses, uint256[4] memory _intValues,\n            bytes32[3] memory _bytesData\n            ) public view returns (bytes32) {\n        return keccak256(\n            abi.encodePacked(\n                address(this),  // address of ZkLoans contract\n                _addresses[0],  // lender\n                _addresses[1],  // borrower\n                _addresses[2],  // relayer\n                _addresses[3],  // wrangler\n                _addresses[4],  // collateral token\n                _addresses[5],  // loan token\n                _bytesData[0],  // lend currency noteHash\n                _bytesData[1],  // borrow currency noteHash (collateral)\n                _intValues[0],  // monitoring fee\n                _bytesData[2],  // salt\n                _intValues[1],  // expires at\n                _intValues[2],  // daily interest rate\n                _intValues[3]   // position duration in seconds\n            )\n        );\n    }\n\n    function fill(\n        address[6] memory _addresses,\n        // _addresses lender, borrower, relayer, wrangler, collateralToken, loanToken\n        uint256[6] memory _intValues,\n        // _intValues monitoringFeeLST, nonce, kernelDailyInterestRate, kernelExpiresAt, WranglerExpiresAt, positionDurationInSeconds\n        bytes32[3] memory _noteHashes,\n        // _noteHashes lendCurrencyNoteHash, borrowCurrencyNoteHash (expected collateral), lendCurrencyOwedNoteHash\n        bool _is_creator_lender,\n        bytes32 _kernel_creator_salt\n    ) public{\n        // validate _lender is not empty\n        require(_addresses[0] != address(0));\n        // validate _borrower is not empty\n        require(_addresses[1] != address(0));\n        address _kernel_creator = _addresses[1];\n        kernel memory _kernel = kernel({\n            lender: address(0),\n            borrower: _addresses[1],\n            relayer: _addresses[2],\n            wrangler: _addresses[3],\n            borrow_currency_address: _addresses[4],\n            lend_currency_address: _addresses[5],\n            lend_currency_noteHash: _noteHashes[0],\n            borrow_currency_noteHash: _noteHashes[1],\n            // relayer_fee: _values[2],\n            monitoring_fee: _intValues[0],\n            // rollover_fee: _values[4],\n            // closure_fee: _values[5],\n            salt: _kernel_creator_salt,\n            expires_at: _intValues[3],\n            daily_interest_rate: _intValues[2],\n            position_duration_in_seconds: _intValues[5]\n        });\n        if(_is_creator_lender){\n            _kernel_creator = _addresses[0];\n            _kernel.lender = _addresses[0];\n            _kernel.borrower = address(0);\n        }\n        // It's OK if _relayer is empty\n        // validate _wrangler is not empty\n        require(_kernel.wrangler != address(0));\n        \n        // validate loan amounts\n        // require(_values[0] > 0);\n        // require(_kernel.lend_currency_offered_value > 0);\n        // require(_values[6] > 0);\n        // validate asked and offered expiry timestamps\n        require(_kernel.expires_at > block.timestamp);\n        // validate daily interest rate on Kernel is greater than 0\n        require(_kernel.daily_interest_rate > 0);\n        // compute hash of kernel\n        bytes32 _k_hash =  kernel_hash(\n            [_kernel.lender, _kernel.borrower, _kernel.relayer, _kernel.wrangler,\n            _kernel.borrow_currency_address, _kernel.lend_currency_address],\n            [_kernel.monitoring_fee, _kernel.expires_at, _kernel.daily_interest_rate, _kernel.position_duration_in_seconds],\n            [_kernel.lend_currency_noteHash, _kernel.borrow_currency_noteHash, _kernel.salt]);\n\n        kernels_filled[_k_hash] = true;\n    }\n\n    function cancel(address[6] memory _addresses, bytes32[2] memory _noteHashes, uint256[5] memory _intValues, bytes32 _kernel_creator_salt) public {\n        // compute kernel hash from inputs\n            kernel memory _kernel = kernel({\n                lender: address(0),\n                borrower: _addresses[1],\n                relayer: _addresses[2],\n                wrangler: _addresses[3],\n                borrow_currency_address: _addresses[4],\n                lend_currency_address: _addresses[5],\n                lend_currency_noteHash: _noteHashes[0],\n                borrow_currency_noteHash: _noteHashes[1],\n                // relayer_fee: _values[2],\n                monitoring_fee: _intValues[0],\n                // rollover_fee: _values[4],\n                // closure_fee: _values[5],\n                salt: _kernel_creator_salt,\n                expires_at: _intValues[3],\n                daily_interest_rate: _intValues[2],\n                position_duration_in_seconds: _intValues[4]\n            });\n            // bytes32 _k_hash = kernel_hash(\n            //     [_kernel.lender, _kernel.borrower, _kernel.relayer, _kernel.wrangler,\n            //     _kernel.borrow_currency_address, _kernel.lend_currency_address],\n            //     [_kernel.lend_currency_offered_value,\n            //     _kernel.relayer_fee, _kernel.monitoring_fee, _kernel.rollover_fee, _kernel.closure_fee],\n            //     _kernel.expires_at, _kernel.salt, _kernel.daily_interest_rate, _kernel.position_duration_in_seconds);\n            bytes32 _k_hash = kernel_hash(\n                [_kernel.lender, _kernel.borrower, _kernel.relayer, _kernel.wrangler,\n                _kernel.borrow_currency_address, _kernel.lend_currency_address],\n                [_kernel.monitoring_fee, _kernel.expires_at, _kernel.daily_interest_rate, _kernel.position_duration_in_seconds],\n                [_kernel.lend_currency_noteHash, _kernel.borrow_currency_noteHash, _kernel.salt]);\n\n            // verify sender is kernel creator\n            // require(is_signer(msg.sender, _k_hash, _sig_data));\n            // verify sanity of offered and cancellation amounts\n            // require(_kernel.lend_currency_offered_value > 0);\n            // require(_lend_currency_cancel_value > 0);\n            // verify cancellation amount does not exceed remaining loan amount to be filled\n            // require(_kernel.lend_currency_offered_value - _k_hash >= _lend_currency_cancel_value);\n            kernels_cancelled[_k_hash] = true;\n    }\n}",
    "sourcePath": "/home/tezansahu/Tezan/Github Repos/LendZ/contracts/Kernel.sol",
    "compiler": {
        "name": "solc",
        "version": "0.5.7+commit.6da8b019.Emscripten.clang"
    },
    "schemaVersion": "3.0.11",
    "updatedAt": "2019-08-03T15:31:50.632Z",
    "devdoc": {
        "methods": {}
    },
    "userdoc": {
        "methods": {}
    }
}