{
    "contractName": "ZkLoan",
    "abi": [
        {
            "constant": true,
            "inputs": [
                {
                    "name": "",
                    "type": "uint256"
                }
            ],
            "name": "position_index",
            "outputs": [
                {
                    "name": "",
                    "type": "address"
                }
            ],
            "payable": false,
            "stateMutability": "view",
            "type": "function"
        },
        {
            "constant": true,
            "inputs": [],
            "name": "position_threshold",
            "outputs": [
                {
                    "name": "",
                    "type": "uint256"
                }
            ],
            "payable": false,
            "stateMutability": "view",
            "type": "function"
        },
        {
            "constant": true,
            "inputs": [
                {
                    "name": "",
                    "type": "address"
                },
                {
                    "name": "",
                    "type": "address"
                }
            ],
            "name": "wrangler_nonces",
            "outputs": [
                {
                    "name": "",
                    "type": "uint256"
                }
            ],
            "payable": false,
            "stateMutability": "view",
            "type": "function"
        },
        {
            "constant": true,
            "inputs": [],
            "name": "POSITION_STATUS_OPEN",
            "outputs": [
                {
                    "name": "",
                    "type": "uint256"
                }
            ],
            "payable": false,
            "stateMutability": "view",
            "type": "function"
        },
        {
            "constant": true,
            "inputs": [],
            "name": "POSITION_STATUS_LIQUIDATED",
            "outputs": [
                {
                    "name": "",
                    "type": "uint256"
                }
            ],
            "payable": false,
            "stateMutability": "view",
            "type": "function"
        },
        {
            "constant": true,
            "inputs": [
                {
                    "name": "",
                    "type": "address"
                }
            ],
            "name": "lend_positions_count",
            "outputs": [
                {
                    "name": "",
                    "type": "uint256"
                }
            ],
            "payable": false,
            "stateMutability": "view",
            "type": "function"
        },
        {
            "constant": true,
            "inputs": [],
            "name": "POSITION_STATUS_CLOSED",
            "outputs": [
                {
                    "name": "",
                    "type": "uint256"
                }
            ],
            "payable": false,
            "stateMutability": "view",
            "type": "function"
        },
        {
            "constant": true,
            "inputs": [
                {
                    "name": "",
                    "type": "address"
                }
            ],
            "name": "supported_tokens",
            "outputs": [
                {
                    "name": "",
                    "type": "bool"
                }
            ],
            "payable": false,
            "stateMutability": "view",
            "type": "function"
        },
        {
            "constant": true,
            "inputs": [
                {
                    "name": "",
                    "type": "address"
                },
                {
                    "name": "",
                    "type": "uint256"
                }
            ],
            "name": "borrow_positions",
            "outputs": [
                {
                    "name": "",
                    "type": "address"
                }
            ],
            "payable": false,
            "stateMutability": "view",
            "type": "function"
        },
        {
            "constant": true,
            "inputs": [],
            "name": "owner",
            "outputs": [
                {
                    "name": "",
                    "type": "address"
                }
            ],
            "payable": false,
            "stateMutability": "view",
            "type": "function"
        },
        {
            "constant": true,
            "inputs": [
                {
                    "name": "",
                    "type": "address"
                }
            ],
            "name": "wranglers",
            "outputs": [
                {
                    "name": "",
                    "type": "bool"
                }
            ],
            "payable": false,
            "stateMutability": "view",
            "type": "function"
        },
        {
            "constant": true,
            "inputs": [],
            "name": "POSITION_TOPPED_UP",
            "outputs": [
                {
                    "name": "",
                    "type": "uint256"
                }
            ],
            "payable": false,
            "stateMutability": "view",
            "type": "function"
        },
        {
            "constant": true,
            "inputs": [],
            "name": "last_position_index",
            "outputs": [
                {
                    "name": "",
                    "type": "uint256"
                }
            ],
            "payable": false,
            "stateMutability": "view",
            "type": "function"
        },
        {
            "constant": true,
            "inputs": [
                {
                    "name": "",
                    "type": "address"
                },
                {
                    "name": "",
                    "type": "uint256"
                }
            ],
            "name": "lend_positions",
            "outputs": [
                {
                    "name": "",
                    "type": "address"
                }
            ],
            "payable": false,
            "stateMutability": "view",
            "type": "function"
        },
        {
            "constant": true,
            "inputs": [],
            "name": "protocol_token_address",
            "outputs": [
                {
                    "name": "",
                    "type": "address"
                }
            ],
            "payable": false,
            "stateMutability": "view",
            "type": "function"
        },
        {
            "constant": true,
            "inputs": [
                {
                    "name": "",
                    "type": "address"
                }
            ],
            "name": "borrow_positions_count",
            "outputs": [
                {
                    "name": "",
                    "type": "uint256"
                }
            ],
            "payable": false,
            "stateMutability": "view",
            "type": "function"
        },
        {
            "inputs": [
                {
                    "name": "_protocol_token_address",
                    "type": "address"
                },
                {
                    "name": "_kernel_address",
                    "type": "address"
                }
            ],
            "payable": false,
            "stateMutability": "nonpayable",
            "type": "constructor"
        },
        {
            "anonymous": false,
            "inputs": [
                {
                    "indexed": true,
                    "name": "kernelHash",
                    "type": "bytes32"
                },
                {
                    "indexed": true,
                    "name": "borrower",
                    "type": "address"
                },
                {
                    "indexed": true,
                    "name": "pubKey",
                    "type": "bytes"
                }
            ],
            "name": "BorrowerAccessRequested",
            "type": "event"
        },
        {
            "anonymous": false,
            "inputs": [
                {
                    "indexed": true,
                    "name": "kernelHash",
                    "type": "bytes32"
                },
                {
                    "indexed": true,
                    "name": "borrower",
                    "type": "address"
                }
            ],
            "name": "BorrowerAccessGranted",
            "type": "event"
        },
        {
            "anonymous": false,
            "inputs": [
                {
                    "indexed": false,
                    "name": "_notification_key",
                    "type": "string"
                },
                {
                    "indexed": true,
                    "name": "_address",
                    "type": "address"
                },
                {
                    "indexed": false,
                    "name": "_notification_value",
                    "type": "uint256"
                }
            ],
            "name": "ProtocolParameterUpdateNotification",
            "type": "event"
        },
        {
            "anonymous": false,
            "inputs": [
                {
                    "indexed": true,
                    "name": "_wrangler",
                    "type": "address"
                },
                {
                    "indexed": true,
                    "name": "_position_address",
                    "type": "address"
                },
                {
                    "indexed": false,
                    "name": "_notification_key",
                    "type": "string"
                },
                {
                    "indexed": false,
                    "name": "_notification_value",
                    "type": "uint256"
                }
            ],
            "name": "PositionUpdateNotification",
            "type": "event"
        },
        {
            "constant": false,
            "inputs": [
                {
                    "name": "_kernelHash",
                    "type": "bytes32"
                },
                {
                    "name": "pubKey",
                    "type": "bytes"
                }
            ],
            "name": "requestAccess",
            "outputs": [],
            "payable": false,
            "stateMutability": "nonpayable",
            "type": "function"
        },
        {
            "constant": false,
            "inputs": [
                {
                    "name": "_kernelHash",
                    "type": "bytes32"
                },
                {
                    "name": "_borrower",
                    "type": "address"
                },
                {
                    "name": "_sharedSecret",
                    "type": "bytes"
                }
            ],
            "name": "approveAccess",
            "outputs": [],
            "payable": false,
            "stateMutability": "nonpayable",
            "type": "function"
        },
        {
            "constant": false,
            "inputs": [
                {
                    "name": "_address",
                    "type": "address"
                },
                {
                    "name": "_is_active",
                    "type": "bool"
                }
            ],
            "name": "set_token_support",
            "outputs": [
                {
                    "name": "",
                    "type": "bool"
                }
            ],
            "payable": false,
            "stateMutability": "nonpayable",
            "type": "function"
        },
        {
            "constant": false,
            "inputs": [
                {
                    "name": "_position_address",
                    "type": "address"
                }
            ],
            "name": "remove_position",
            "outputs": [],
            "payable": false,
            "stateMutability": "nonpayable",
            "type": "function"
        },
        {
            "constant": false,
            "inputs": [
                {
                    "name": "_position_address",
                    "type": "address"
                },
                {
                    "name": "repayProof",
                    "type": "bytes"
                },
                {
                    "name": "repaySign",
                    "type": "bytes"
                },
                {
                    "name": "returnCollateralProof",
                    "type": "bytes"
                }
            ],
            "name": "close_position",
            "outputs": [
                {
                    "name": "",
                    "type": "bool"
                }
            ],
            "payable": false,
            "stateMutability": "nonpayable",
            "type": "function"
        },
        {
            "constant": false,
            "inputs": [
                {
                    "name": "_addresses",
                    "type": "address[6]"
                },
                {
                    "name": "_intValues",
                    "type": "uint256[6]"
                },
                {
                    "name": "_noteHashes",
                    "type": "bytes32[3]"
                },
                {
                    "name": "_is_creator_lender",
                    "type": "bool"
                },
                {
                    "name": "_kernel_creator_salt",
                    "type": "bytes32"
                },
                {
                    "name": "lendProof",
                    "type": "bytes"
                },
                {
                    "name": "lendSign",
                    "type": "bytes"
                },
                {
                    "name": "collateralProof",
                    "type": "bytes"
                },
                {
                    "name": "collateralSign",
                    "type": "bytes"
                }
            ],
            "name": "fill_kernel",
            "outputs": [
                {
                    "name": "",
                    "type": "bool"
                }
            ],
            "payable": false,
            "stateMutability": "nonpayable",
            "type": "function"
        },
        {
            "constant": false,
            "inputs": [
                {
                    "name": "_addresses",
                    "type": "address[6]"
                },
                {
                    "name": "_noteHashes",
                    "type": "bytes32[2]"
                },
                {
                    "name": "_intValues",
                    "type": "uint256[5]"
                },
                {
                    "name": "_kernel_creator_salt",
                    "type": "bytes32"
                }
            ],
            "name": "cancel_kernel",
            "outputs": [
                {
                    "name": "",
                    "type": "bool"
                }
            ],
            "payable": false,
            "stateMutability": "nonpayable",
            "type": "function"
        }
    ],
    "bytecode": "0x6080604052600160105560026011556003601255600160135534801561002457600080fd5b5060405160408062005bd88339810180604052604081101561004557600080fd5b81019080805190602001909291908051906020019092919050505033600160006101000a81548173ffffffffffffffffffffffffffffffffffffffff021916908373ffffffffffffffffffffffffffffffffffffffff160217905550816000806101000a81548173ffffffffffffffffffffffffffffffffffffffff021916908373ffffffffffffffffffffffffffffffffffffffff16021790555080600260006101000a81548173ffffffffffffffffffffffffffffffffffffffff021916908373ffffffffffffffffffffffffffffffffffffffff1602179055505050615aa480620001346000396000f3fe60806040523480156200001157600080fd5b50600436106200016c5760003560e01c80638da5cb5b11620000d5578063e4830ae41162000087578063e4830ae41462000adc578063e7cd51aa1462000afc578063efa699c01462000b8d578063f3a6b9ba1462000dba578063f517b5891462000e06578063f56806321462000e61576200016c565b80638da5cb5b146200055a578063a044f7b314620005a6578063c91563181462000605578063cd6f20101462000625578063d21163761462000690578063da1272ab146200075b576200016c565b80634c97ef63116200012f5780634c97ef6314620003af5780635bf387b214620003cf5780636c7e8b4314620003ef5780636e6727a1146200044a5780637741fd4d146200046a5780638a49076114620004c9576200016c565b806314c67f7d14620001715780631a37a99214620001e257806321aea82114620002295780632ec0609614620003145780633057748c1462000334575b600080fd5b620001a0600480360360208110156200018957600080fd5b810190808035906020019092919050505062000f6e565b604051808273ffffffffffffffffffffffffffffffffffffffff1673ffffffffffffffffffffffffffffffffffffffff16815260200191505060405180910390f35b6200022760048036036020811015620001fa57600080fd5b81019080803573ffffffffffffffffffffffffffffffffffffffff16906020019092919050505062000fa1565b005b62000312600480360360608110156200024157600080fd5b8101908080359060200190929190803573ffffffffffffffffffffffffffffffffffffffff169060200190929190803590602001906401000000008111156200028957600080fd5b8201836020820111156200029c57600080fd5b80359060200191846001830284011164010000000083111715620002bf57600080fd5b91908080601f016020809104026020016040519081016040528093929190818152602001838380828437600081840152601f19601f820116905080830192505050505050509192919290505050620018e7565b005b6200031e62001997565b6040518082815260200191505060405180910390f35b62000399600480360360408110156200034c57600080fd5b81019080803573ffffffffffffffffffffffffffffffffffffffff169060200190929190803573ffffffffffffffffffffffffffffffffffffffff1690602001909291905050506200199d565b6040518082815260200191505060405180910390f35b620003b9620019c2565b6040518082815260200191505060405180910390f35b620003d9620019c8565b6040518082815260200191505060405180910390f35b62000434600480360360208110156200040757600080fd5b81019080803573ffffffffffffffffffffffffffffffffffffffff169060200190929190505050620019ce565b6040518082815260200191505060405180910390f35b62000454620019e6565b6040518082815260200191505060405180910390f35b620004af600480360360208110156200048257600080fd5b81019080803573ffffffffffffffffffffffffffffffffffffffff169060200190929190505050620019ec565b604051808215151515815260200191505060405180910390f35b6200051860048036036040811015620004e157600080fd5b81019080803573ffffffffffffffffffffffffffffffffffffffff1690602001909291908035906020019092919050505062001a0c565b604051808273ffffffffffffffffffffffffffffffffffffffff1673ffffffffffffffffffffffffffffffffffffffff16815260200191505060405180910390f35b6200056462001a4e565b604051808273ffffffffffffffffffffffffffffffffffffffff1673ffffffffffffffffffffffffffffffffffffffff16815260200191505060405180910390f35b620005eb60048036036020811015620005be57600080fd5b81019080803573ffffffffffffffffffffffffffffffffffffffff16906020019092919050505062001a74565b604051808215151515815260200191505060405180910390f35b6200060f62001a94565b6040518082815260200191505060405180910390f35b62000676600480360360408110156200063d57600080fd5b81019080803573ffffffffffffffffffffffffffffffffffffffff16906020019092919080351515906020019092919050505062001a9a565b604051808215151515815260200191505060405180910390f35b6200075960048036036040811015620006a857600080fd5b810190808035906020019092919080359060200190640100000000811115620006d057600080fd5b820183602082011115620006e357600080fd5b803590602001918460018302840111640100000000831117156200070657600080fd5b91908080601f016020809104026020016040519081016040528093929190818152602001838380828437600081840152601f19601f82011690508083019250505050505050919291929050505062001c5b565b005b62000ac260048036036102a08110156200077457600080fd5b810190808060c001906006806020026040519081016040528092919082600660200280828437600081840152601f19601f82011690508083019250505050505091929192908060c001906006806020026040519081016040528092919082600660200280828437600081840152601f19601f820116905080830192505050505050919291929080606001906003806020026040519081016040528092919082600360200280828437600081840152601f19601f820116905080830192505050505050919291929080351515906020019092919080359060200190929190803590602001906401000000008111156200086b57600080fd5b8201836020820111156200087e57600080fd5b80359060200191846001830284011164010000000083111715620008a157600080fd5b91908080601f016020809104026020016040519081016040528093929190818152602001838380828437600081840152601f19601f820116905080830192505050505050509192919290803590602001906401000000008111156200090557600080fd5b8201836020820111156200091857600080fd5b803590602001918460018302840111640100000000831117156200093b57600080fd5b91908080601f016020809104026020016040519081016040528093929190818152602001838380828437600081840152601f19601f820116905080830192505050505050509192919290803590602001906401000000008111156200099f57600080fd5b820183602082011115620009b257600080fd5b80359060200191846001830284011164010000000083111715620009d557600080fd5b91908080601f016020809104026020016040519081016040528093929190818152602001838380828437600081840152601f19601f8201169050808301925050505050505091929192908035906020019064010000000081111562000a3957600080fd5b82018360208201111562000a4c57600080fd5b8035906020019184600183028401116401000000008311171562000a6f57600080fd5b91908080601f016020809104026020016040519081016040528093929190818152602001838380828437600081840152601f19601f82011690508083019250505050505050919291929050505062001da2565b604051808215151515815260200191505060405180910390f35b62000ae662002064565b6040518082815260200191505060405180910390f35b62000b4b6004803603604081101562000b1457600080fd5b81019080803573ffffffffffffffffffffffffffffffffffffffff169060200190929190803590602001909291905050506200206a565b604051808273ffffffffffffffffffffffffffffffffffffffff1673ffffffffffffffffffffffffffffffffffffffff16815260200191505060405180910390f35b62000da06004803603608081101562000ba557600080fd5b81019080803573ffffffffffffffffffffffffffffffffffffffff1690602001909291908035906020019064010000000081111562000be357600080fd5b82018360208201111562000bf657600080fd5b8035906020019184600183028401116401000000008311171562000c1957600080fd5b91908080601f016020809104026020016040519081016040528093929190818152602001838380828437600081840152601f19601f8201169050808301925050505050505091929192908035906020019064010000000081111562000c7d57600080fd5b82018360208201111562000c9057600080fd5b8035906020019184600183028401116401000000008311171562000cb357600080fd5b91908080601f016020809104026020016040519081016040528093929190818152602001838380828437600081840152601f19601f8201169050808301925050505050505091929192908035906020019064010000000081111562000d1757600080fd5b82018360208201111562000d2a57600080fd5b8035906020019184600183028401116401000000008311171562000d4d57600080fd5b91908080601f016020809104026020016040519081016040528093929190818152602001838380828437600081840152601f19601f820116905080830192505050505050509192919290505050620020ac565b604051808215151515815260200191505060405180910390f35b62000dc462003146565b604051808273ffffffffffffffffffffffffffffffffffffffff1673ffffffffffffffffffffffffffffffffffffffff16815260200191505060405180910390f35b62000e4b6004803603602081101562000e1e57600080fd5b81019080803573ffffffffffffffffffffffffffffffffffffffff1690602001909291905050506200316b565b6040518082815260200191505060405180910390f35b62000f5460048036036101c081101562000e7a57600080fd5b810190808060c001906006806020026040519081016040528092919082600660200280828437600081840152601f19601f820116905080830192505050505050919291929080604001906002806020026040519081016040528092919082600260200280828437600081840152601f19601f82011690508083019250505050505091929192908060a001906005806020026040519081016040528092919082600560200280828437600081840152601f19601f82011690508083019250505050505091929192908035906020019092919050505062003183565b604051808215151515815260200191505060405180910390f35b60046020528060005260406000206000915054906101000a900473ffffffffffffffffffffffffffffffffffffffff1681565b60008173ffffffffffffffffffffffffffffffffffffffff16631cb0c3e76040518163ffffffff1660e01b815260040160206040518083038186803b15801562000fea57600080fd5b505afa15801562000fff573d6000803e3d6000fd5b505050506040513d60208110156200101657600080fd5b8101908080519060200190929190505050905060008273ffffffffffffffffffffffffffffffffffffffff16639861f3e56040518163ffffffff1660e01b815260040160206040518083038186803b1580156200107257600080fd5b505afa15801562001087573d6000803e3d6000fd5b505050506040513d60208110156200109e57600080fd5b810190808051906020019092919050505090506000600860008473ffffffffffffffffffffffffffffffffffffffff1673ffffffffffffffffffffffffffffffffffffffff16815260200190815260200160002060008573ffffffffffffffffffffffffffffffffffffffff1673ffffffffffffffffffffffffffffffffffffffff1681526020019081526020016000205490506000600a60008573ffffffffffffffffffffffffffffffffffffffff1673ffffffffffffffffffffffffffffffffffffffff1681526020019081526020016000205490506000600660008673ffffffffffffffffffffffffffffffffffffffff1673ffffffffffffffffffffffffffffffffffffffff168152602001908152602001600020600083815260200190815260200160002060009054906101000a900473ffffffffffffffffffffffffffffffffffffffff169050600660008673ffffffffffffffffffffffffffffffffffffffff1673ffffffffffffffffffffffffffffffffffffffff168152602001908152602001600020600083815260200190815260200160002060009054906101000a900473ffffffffffffffffffffffffffffffffffffffff16600660008773ffffffffffffffffffffffffffffffffffffffff1673ffffffffffffffffffffffffffffffffffffffff168152602001908152602001600020600085815260200190815260200160002060006101000a81548173ffffffffffffffffffffffffffffffffffffffff021916908373ffffffffffffffffffffffffffffffffffffffff1602179055506000600660008773ffffffffffffffffffffffffffffffffffffffff1673ffffffffffffffffffffffffffffffffffffffff168152602001908152602001600020600084815260200190815260200160002060006101000a81548173ffffffffffffffffffffffffffffffffffffffff021916908373ffffffffffffffffffffffffffffffffffffffff1602179055506000600860008773ffffffffffffffffffffffffffffffffffffffff1673ffffffffffffffffffffffffffffffffffffffff16815260200190815260200160002060008873ffffffffffffffffffffffffffffffffffffffff1673ffffffffffffffffffffffffffffffffffffffff1681526020019081526020016000208190555082600860008773ffffffffffffffffffffffffffffffffffffffff1673ffffffffffffffffffffffffffffffffffffffff16815260200190815260200160002060008373ffffffffffffffffffffffffffffffffffffffff1673ffffffffffffffffffffffffffffffffffffffff168152602001908152602001600020819055506001600a60008773ffffffffffffffffffffffffffffffffffffffff1673ffffffffffffffffffffffffffffffffffffffff16815260200190815260200160002060008282540392505081905550600960008573ffffffffffffffffffffffffffffffffffffffff1673ffffffffffffffffffffffffffffffffffffffff16815260200190815260200160002060008773ffffffffffffffffffffffffffffffffffffffff1673ffffffffffffffffffffffffffffffffffffffff168152602001908152602001600020549250600b60008573ffffffffffffffffffffffffffffffffffffffff1673ffffffffffffffffffffffffffffffffffffffff168152602001908152602001600020549150600760008573ffffffffffffffffffffffffffffffffffffffff1673ffffffffffffffffffffffffffffffffffffffff168152602001908152602001600020600083815260200190815260200160002060009054906101000a900473ffffffffffffffffffffffffffffffffffffffff169050600760008573ffffffffffffffffffffffffffffffffffffffff1673ffffffffffffffffffffffffffffffffffffffff168152602001908152602001600020600083815260200190815260200160002060009054906101000a900473ffffffffffffffffffffffffffffffffffffffff16600760008673ffffffffffffffffffffffffffffffffffffffff1673ffffffffffffffffffffffffffffffffffffffff168152602001908152602001600020600085815260200190815260200160002060006101000a81548173ffffffffffffffffffffffffffffffffffffffff021916908373ffffffffffffffffffffffffffffffffffffffff1602179055506000600760008673ffffffffffffffffffffffffffffffffffffffff1673ffffffffffffffffffffffffffffffffffffffff168152602001908152602001600020600084815260200190815260200160002060006101000a81548173ffffffffffffffffffffffffffffffffffffffff021916908373ffffffffffffffffffffffffffffffffffffffff1602179055506000600960008673ffffffffffffffffffffffffffffffffffffffff1673ffffffffffffffffffffffffffffffffffffffff16815260200190815260200160002060008873ffffffffffffffffffffffffffffffffffffffff1673ffffffffffffffffffffffffffffffffffffffff1681526020019081526020016000208190555082600960008673ffffffffffffffffffffffffffffffffffffffff1673ffffffffffffffffffffffffffffffffffffffff16815260200190815260200160002060008373ffffffffffffffffffffffffffffffffffffffff1673ffffffffffffffffffffffffffffffffffffffff168152602001908152602001600020819055506001600b60008673ffffffffffffffffffffffffffffffffffffffff1673ffffffffffffffffffffffffffffffffffffffff16815260200190815260200160002060008282540392505081905550505050505050565b80600f600085815260200190815260200160002060008473ffffffffffffffffffffffffffffffffffffffff1673ffffffffffffffffffffffffffffffffffffffff16815260200190815260200160002090805190602001906200194d92919062004a52565b508173ffffffffffffffffffffffffffffffffffffffff16837f45d4481ba033f01ed9d13f0fee2d8533359ba0ee4e5cb907ab9fcecfec8cc3bc60405160405180910390a3505050565b60055481565b600d602052816000526040600020602052806000526040600020600091509150505481565b60105481565b60125481565b600b6020528060005260406000206000915090505481565b60115481565b600e6020528060005260406000206000915054906101000a900460ff1681565b60066020528160005260406000206020528060005260406000206000915091509054906101000a900473ffffffffffffffffffffffffffffffffffffffff1681565b600160009054906101000a900473ffffffffffffffffffffffffffffffffffffffff1681565b600c6020528060005260406000206000915054906101000a900460ff1681565b60135481565b6000600160009054906101000a900473ffffffffffffffffffffffffffffffffffffffff1673ffffffffffffffffffffffffffffffffffffffff163373ffffffffffffffffffffffffffffffffffffffff161462001b60576040517f08c379a00000000000000000000000000000000000000000000000000000000081526004018080602001828103825260148152602001807f53656e646572206d757374206265206f776e657200000000000000000000000081525060200191505060405180910390fd5b81600e60008573ffffffffffffffffffffffffffffffffffffffff1673ffffffffffffffffffffffffffffffffffffffff16815260200190815260200160002060006101000a81548160ff0219169083151502179055508273ffffffffffffffffffffffffffffffffffffffff167fcaa67034185385701cd8500f30b2a0f202812e3afa9aaa70aa571eba9c5b9ad98362001bfd57600062001c00565b60015b60405180806020018360ff1681526020018281038252600d8152602001807f746f6b656e5f737570706f7274000000000000000000000000000000000000008152506020019250505060405180910390a26001905092915050565b6040518060400160405280600281526020017f3078000000000000000000000000000000000000000000000000000000000000815250600f600084815260200190815260200160002060003373ffffffffffffffffffffffffffffffffffffffff1673ffffffffffffffffffffffffffffffffffffffff168152602001908152602001600020908051906020019062001cf692919062004ad9565b50806040518082805190602001908083835b6020831062001d2d578051825260208201915060208101905060208303925062001d08565b6001836020036101000a03801982511681845116808217855250505050505090500191505060405180910390203373ffffffffffffffffffffffffffffffffffffffff16837fb9ce8762ad37ed722cbaa82ca04c2a7613ee41bd5f86a9937c37b21af2b2113860405160405180910390a45050565b6000600e60008b60046006811062001db657fe5b602002015173ffffffffffffffffffffffffffffffffffffffff1673ffffffffffffffffffffffffffffffffffffffff16815260200190815260200160002060009054906101000a900460ff1662001e0d57600080fd5b600e60008b60056006811062001e1f57fe5b602002015173ffffffffffffffffffffffffffffffffffffffff1673ffffffffffffffffffffffffffffffffffffffff16815260200190815260200160002060009054906101000a900460ff1662001e7657600080fd5b600260009054906101000a900473ffffffffffffffffffffffffffffffffffffffff1673ffffffffffffffffffffffffffffffffffffffff16634650f7b38b8b8b8b8b6040518663ffffffff1660e01b81526004018086600660200280838360005b8381101562001ef557808201518184015260208101905062001ed8565b5050505090500185600660200280838360005b8381101562001f2557808201518184015260208101905062001f08565b5050505090500184600360200280838360005b8381101562001f5557808201518184015260208101905062001f38565b505050509050018315151515815260200182815260200195505050505050600060405180830381600087803b15801562001f8e57600080fd5b505af115801562001fa3573d6000803e3d6000fd5b50505050620020538762001fca578a60016006811062001fbf57fe5b602002015162001fde565b8a60006006811062001fd857fe5b60200201515b8b8a60405180608001604052808e60016006811062001ff957fe5b602002015181526020018e6000600681106200201157fe5b602002015181526020018e6005600681106200202957fe5b602002015181526020018e6004600681106200204157fe5b602002015181525089898989620032b6565b600190509998505050505050505050565b60035481565b60076020528160005260406000206020528060005260406000206000915091509054906101000a900473ffffffffffffffffffffffffffffffffffffffff1681565b6000808590508073ffffffffffffffffffffffffffffffffffffffff16631cb0c3e76040518163ffffffff1660e01b815260040160206040518083038186803b158015620020f957600080fd5b505afa1580156200210e573d6000803e3d6000fd5b505050506040513d60208110156200212557600080fd5b810190808051906020019092919050505073ffffffffffffffffffffffffffffffffffffffff163373ffffffffffffffffffffffffffffffffffffffff16146200216e57600080fd5b428173ffffffffffffffffffffffffffffffffffffffff16638622a6896040518163ffffffff1660e01b815260040160206040518083038186803b158015620021b657600080fd5b505afa158015620021cb573d6000803e3d6000fd5b505050506040513d6020811015620021e257600080fd5b81019080805190602001909291905050501015620021ff57600080fd5b6010548173ffffffffffffffffffffffffffffffffffffffff16634e69d5606040518163ffffffff1660e01b815260040160206040518083038186803b1580156200224957600080fd5b505afa1580156200225e573d6000803e3d6000fd5b505050506040513d60208110156200227557600080fd5b8101908080519060200190929190505050146200229157600080fd5b8073ffffffffffffffffffffffffffffffffffffffff166369ba1a756011546040518263ffffffff1660e01b815260040180828152602001915050600060405180830381600087803b158015620022e757600080fd5b505af1158015620022fc573d6000803e3d6000fd5b505050506200230b8662000fa1565b60608173ffffffffffffffffffffffffffffffffffffffff1663309f27a36040518163ffffffff1660e01b815260040160206040518083038186803b1580156200235457600080fd5b505afa15801562002369573d6000803e3d6000fd5b505050506040513d60208110156200238057600080fd5b810190808051906020019092919050505073ffffffffffffffffffffffffffffffffffffffff1663f37e40426040518163ffffffff1660e01b815260040160206040518083038186803b158015620023d757600080fd5b505afa158015620023ec573d6000803e3d6000fd5b505050506040513d60208110156200240357600080fd5b810190808051906020019092919050505073ffffffffffffffffffffffffffffffffffffffff1663a2866ea36201010130896040518463ffffffff1660e01b8152600401808462ffffff1662ffffff1681526020018373ffffffffffffffffffffffffffffffffffffffff1673ffffffffffffffffffffffffffffffffffffffff16815260200180602001828103825283818151815260200191508051906020019080838360005b83811015620024c8578082015181840152602081019050620024ab565b50505050905090810190601f168015620024f65780820380516001836020036101000a031916815260200191505b50945050505050600060405180830381600087803b1580156200251857600080fd5b505af11580156200252d573d6000803e3d6000fd5b505050506040513d6000823e3d601f19601f8201168201806040525060208110156200255857600080fd5b8101908080516401000000008111156200257157600080fd5b828101905060208101848111156200258857600080fd5b8151856001820283011164010000000082111715620025a657600080fd5b50509291905050509050606080620025d3620025cd6000856200455190919063ffffffff16565b620045cb565b5050915091508373ffffffffffffffffffffffffffffffffffffffff1663c107f9ac6040518163ffffffff1660e01b815260040160206040518083038186803b1580156200262057600080fd5b505afa15801562002635573d6000803e3d6000fd5b505050506040513d60208110156200264c57600080fd5b81019080805190602001909291905050506200267d620026776000856200455190919063ffffffff16565b6200460e565b60200151146200268c57600080fd5b8373ffffffffffffffffffffffffffffffffffffffff1663309f27a36040518163ffffffff1660e01b815260040160206040518083038186803b158015620026d357600080fd5b505afa158015620026e8573d6000803e3d6000fd5b505050506040513d6020811015620026ff57600080fd5b810190808051906020019092919050505073ffffffffffffffffffffffffffffffffffffffff16631f2ac16a6200274b620027456000866200455190919063ffffffff16565b6200460e565b602001513060018b6040518563ffffffff1660e01b8152600401808581526020018473ffffffffffffffffffffffffffffffffffffffff1673ffffffffffffffffffffffffffffffffffffffff1681526020018315151515815260200180602001828103825283818151815260200191508051906020019080838360005b83811015620027e6578082015181840152602081019050620027c9565b50505050905090810190601f168015620028145780820380516001836020036101000a031916815260200191505b5095505050505050600060405180830381600087803b1580156200283757600080fd5b505af11580156200284c573d6000803e3d6000fd5b505050508373ffffffffffffffffffffffffffffffffffffffff1663309f27a36040518163ffffffff1660e01b815260040160206040518083038186803b1580156200289757600080fd5b505afa158015620028ac573d6000803e3d6000fd5b505050506040513d6020811015620028c357600080fd5b810190808051906020019092919050505073ffffffffffffffffffffffffffffffffffffffff1663cdfea90e62010101856040518363ffffffff1660e01b8152600401808362ffffff1662ffffff16815260200180602001828103825283818151815260200191508051906020019080838360005b838110156200295557808201518184015260208101905062002938565b50505050905090810190601f168015620029835780820380516001836020036101000a031916815260200191505b509350505050600060405180830381600087803b158015620029a457600080fd5b505af1158015620029b9573d6000803e3d6000fd5b505050508373ffffffffffffffffffffffffffffffffffffffff1663c6943a366040518163ffffffff1660e01b815260040160206040518083038186803b15801562002a0457600080fd5b505afa15801562002a19573d6000803e3d6000fd5b505050506040513d602081101562002a3057600080fd5b810190808051906020019092919050505073ffffffffffffffffffffffffffffffffffffffff1663f37e40426040518163ffffffff1660e01b815260040160206040518083038186803b15801562002a8757600080fd5b505afa15801562002a9c573d6000803e3d6000fd5b505050506040513d602081101562002ab357600080fd5b810190808051906020019092919050505073ffffffffffffffffffffffffffffffffffffffff1663a2866ea36201010130896040518463ffffffff1660e01b8152600401808462ffffff1662ffffff1681526020018373ffffffffffffffffffffffffffffffffffffffff1673ffffffffffffffffffffffffffffffffffffffff16815260200180602001828103825283818151815260200191508051906020019080838360005b8381101562002b7857808201518184015260208101905062002b5b565b50505050905090810190601f16801562002ba65780820380516001836020036101000a031916815260200191505b50945050505050600060405180830381600087803b15801562002bc857600080fd5b505af115801562002bdd573d6000803e3d6000fd5b505050506040513d6000823e3d601f19601f82011682018060405250602081101562002c0857600080fd5b81019080805164010000000081111562002c2157600080fd5b8281019050602081018481111562002c3857600080fd5b815185600182028301116401000000008211171562002c5657600080fd5b5050929190505050925062002c8062002c7a6000856200455190919063ffffffff16565b620045cb565b90505080925081935050508373ffffffffffffffffffffffffffffffffffffffff1663a1fc17fa6040518163ffffffff1660e01b815260040160206040518083038186803b15801562002cd257600080fd5b505afa15801562002ce7573d6000803e3d6000fd5b505050506040513d602081101562002cfe57600080fd5b810190808051906020019092919050505062002d2f62002d296000856200455190919063ffffffff16565b6200460e565b602001511462002d3e57600080fd5b8373ffffffffffffffffffffffffffffffffffffffff1663c6943a366040518163ffffffff1660e01b815260040160206040518083038186803b15801562002d8557600080fd5b505afa15801562002d9a573d6000803e3d6000fd5b505050506040513d602081101562002db157600080fd5b810190808051906020019092919050505073ffffffffffffffffffffffffffffffffffffffff16631f2ac16a62002dfd62002df76000866200455190919063ffffffff16565b6200460e565b602001513060016040518463ffffffff1660e01b8152600401808481526020018373ffffffffffffffffffffffffffffffffffffffff1673ffffffffffffffffffffffffffffffffffffffff1681526020018215151515815260200180602001828103825260008152602001602001945050505050600060405180830381600087803b15801562002e8d57600080fd5b505af115801562002ea2573d6000803e3d6000fd5b505050508373ffffffffffffffffffffffffffffffffffffffff1663c6943a366040518163ffffffff1660e01b815260040160206040518083038186803b15801562002eed57600080fd5b505afa15801562002f02573d6000803e3d6000fd5b505050506040513d602081101562002f1957600080fd5b810190808051906020019092919050505073ffffffffffffffffffffffffffffffffffffffff1663cdfea90e62010101856040518363ffffffff1660e01b8152600401808362ffffff1662ffffff16815260200180602001828103825283818151815260200191508051906020019080838360005b8381101562002fab57808201518184015260208101905062002f8e565b50505050905090810190601f16801562002fd95780820380516001836020036101000a031916815260200191505b509350505050600060405180830381600087803b15801562002ffa57600080fd5b505af11580156200300f573d6000803e3d6000fd5b505050508373ffffffffffffffffffffffffffffffffffffffff168473ffffffffffffffffffffffffffffffffffffffff1663917903b06040518163ffffffff1660e01b815260040160206040518083038186803b1580156200307157600080fd5b505afa15801562003086573d6000803e3d6000fd5b505050506040513d60208110156200309d57600080fd5b810190808051906020019092919050505073ffffffffffffffffffffffffffffffffffffffff167f34a1b8d5218705f38ed6a2c0011d3b62159ec9febbc7840dd5c06d7016556c226011546040518080602001838152602001828103825260068152602001807f73746174757300000000000000000000000000000000000000000000000000008152506020019250505060405180910390a36001945050505050949350505050565b6000809054906101000a900473ffffffffffffffffffffffffffffffffffffffff1681565b600a6020528060005260406000206000915090505481565b6000600260009054906101000a900473ffffffffffffffffffffffffffffffffffffffff1673ffffffffffffffffffffffffffffffffffffffff16631a363c6a868686866040518563ffffffff1660e01b81526004018085600660200280838360005b8381101562003203578082015181840152602081019050620031e6565b5050505090500184600260200280838360005b838110156200323357808201518184015260208101905062003216565b5050505090500183600560200280838360005b838110156200326357808201518184015260208101905062003246565b50505050905001828152602001945050505050600060405180830381600087803b1580156200329157600080fd5b505af1158015620032a6573d6000803e3d6000fd5b5050505060019050949350505050565b60006040518060e001604052808a73ffffffffffffffffffffffffffffffffffffffff1673ffffffffffffffffffffffffffffffffffffffff168152602001896000600681106200330357fe5b602002015173ffffffffffffffffffffffffffffffffffffffff1673ffffffffffffffffffffffffffffffffffffffff168152602001896001600681106200334757fe5b602002015173ffffffffffffffffffffffffffffffffffffffff1673ffffffffffffffffffffffffffffffffffffffff168152602001896002600681106200338b57fe5b602002015173ffffffffffffffffffffffffffffffffffffffff1673ffffffffffffffffffffffffffffffffffffffff16815260200189600360068110620033cf57fe5b602002015173ffffffffffffffffffffffffffffffffffffffff1673ffffffffffffffffffffffffffffffffffffffff168152602001896004600681106200341357fe5b602002015173ffffffffffffffffffffffffffffffffffffffff1673ffffffffffffffffffffffffffffffffffffffff168152602001896005600681106200345757fe5b602002015173ffffffffffffffffffffffffffffffffffffffff1673ffffffffffffffffffffffffffffffffffffffff16815250876040518060800160405280600354815260200189600060048110620034ad57fe5b6020020151815260200189600160048110620034c557fe5b6020020151815260200189600360048110620034dd57fe5b6020020151815250604051620034f39062004b60565b8084600760200280838360005b838110156200351d57808201518184015260208101905062003500565b5050505090500183600360200280838360005b838110156200354d57808201518184015260208101905062003530565b5050505090500182600460200280838360005b838110156200357d57808201518184015260208101905062003560565b505050509050019350505050604051809103906000f080158015620035a6573d6000803e3d6000fd5b5090506000819050600c60008a600360068110620035c057fe5b602002015173ffffffffffffffffffffffffffffffffffffffff1673ffffffffffffffffffffffffffffffffffffffff16815260200190815260200160002060009054906101000a900460ff1662003680576040517f08c379a00000000000000000000000000000000000000000000000000000000081526004018080602001828103825260138152602001807f5772616e676c6572206e6f74206163746976650000000000000000000000000081525060200191505060405180910390fd5b42876003600481106200368f57fe5b60200201511162003708576040517f08c379a000000000000000000000000000000000000000000000000000000000815260040180806020018281038252601b8152602001807f5772616e676c6572277320617070726f76616c2065787069726564000000000081525060200191505060405180910390fd5b6001600d60008b6003600681106200371c57fe5b602002015173ffffffffffffffffffffffffffffffffffffffff1673ffffffffffffffffffffffffffffffffffffffff16815260200190815260200160002060008c73ffffffffffffffffffffffffffffffffffffffff1673ffffffffffffffffffffffffffffffffffffffff168152602001908152602001600020540187600060048110620037a857fe5b60200201511462003821576040517f08c379a000000000000000000000000000000000000000000000000000000000815260040180806020018281038252600d8152602001807f496e76616c6964206e6f6e63650000000000000000000000000000000000000081525060200191505060405180910390fd5b6001600d60008b6003600681106200383557fe5b602002015173ffffffffffffffffffffffffffffffffffffffff1673ffffffffffffffffffffffffffffffffffffffff16815260200190815260200160002060008c73ffffffffffffffffffffffffffffffffffffffff1673ffffffffffffffffffffffffffffffffffffffff168152602001908152602001600020600082825401925050819055508060046000600354815260200190815260200160002060006101000a81548173ffffffffffffffffffffffffffffffffffffffff021916908373ffffffffffffffffffffffffffffffffffffffff160217905550600160036000828254019250508190555062003954896000600681106200393557fe5b60200201518a6001600681106200394857fe5b6020020151836200465f565b6060896004600681106200396457fe5b602002015173ffffffffffffffffffffffffffffffffffffffff1663f37e40426040518163ffffffff1660e01b815260040160206040518083038186803b158015620039af57600080fd5b505afa158015620039c4573d6000803e3d6000fd5b505050506040513d6020811015620039db57600080fd5b810190808051906020019092919050505073ffffffffffffffffffffffffffffffffffffffff1663a2866ea36201010130886040518463ffffffff1660e01b8152600401808462ffffff1662ffffff1681526020018373ffffffffffffffffffffffffffffffffffffffff1673ffffffffffffffffffffffffffffffffffffffff16815260200180602001828103825283818151815260200191508051906020019080838360005b8381101562003aa057808201518184015260208101905062003a83565b50505050905090810190601f16801562003ace5780820380516001836020036101000a031916815260200191505b50945050505050600060405180830381600087803b15801562003af057600080fd5b505af115801562003b05573d6000803e3d6000fd5b505050506040513d6000823e3d601f19601f82011682018060405250602081101562003b3057600080fd5b81019080805164010000000081111562003b4957600080fd5b8281019050602081018481111562003b6057600080fd5b815185600182028301116401000000008211171562003b7e57600080fd5b5050929190505050905060608062003bab62003ba56000856200455190919063ffffffff16565b620045cb565b5050915091508a60006003811062003bbf57fe5b602002015162003be462003bde6000846200455190919063ffffffff16565b6200460e565b602001511462003bf357600080fd5b8b60046006811062003c0157fe5b602002015173ffffffffffffffffffffffffffffffffffffffff16631f2ac16a62003c4162003c3b6000866200455190919063ffffffff16565b6200460e565b602001513060018a6040518563ffffffff1660e01b8152600401808581526020018473ffffffffffffffffffffffffffffffffffffffff1673ffffffffffffffffffffffffffffffffffffffff1681526020018315151515815260200180602001828103825283818151815260200191508051906020019080838360005b8381101562003cdc57808201518184015260208101905062003cbf565b50505050905090810190601f16801562003d0a5780820380516001836020036101000a031916815260200191505b5095505050505050600060405180830381600087803b15801562003d2d57600080fd5b505af115801562003d42573d6000803e3d6000fd5b505050508b60046006811062003d5457fe5b602002015173ffffffffffffffffffffffffffffffffffffffff1663cdfea90e62010101856040518363ffffffff1660e01b8152600401808362ffffff1662ffffff16815260200180602001828103825283818151815260200191508051906020019080838360005b8381101562003dda57808201518184015260208101905062003dbd565b50505050905090810190601f16801562003e085780820380516001836020036101000a031916815260200191505b509350505050600060405180830381600087803b15801562003e2957600080fd5b505af115801562003e3e573d6000803e3d6000fd5b505050508b60056006811062003e5057fe5b602002015173ffffffffffffffffffffffffffffffffffffffff1663f37e40426040518163ffffffff1660e01b815260040160206040518083038186803b15801562003e9b57600080fd5b505afa15801562003eb0573d6000803e3d6000fd5b505050506040513d602081101562003ec757600080fd5b810190808051906020019092919050505073ffffffffffffffffffffffffffffffffffffffff1663a2866ea362010101308c6040518463ffffffff1660e01b8152600401808462ffffff1662ffffff1681526020018373ffffffffffffffffffffffffffffffffffffffff1673ffffffffffffffffffffffffffffffffffffffff16815260200180602001828103825283818151815260200191508051906020019080838360005b8381101562003f8c57808201518184015260208101905062003f6f565b50505050905090810190601f16801562003fba5780820380516001836020036101000a031916815260200191505b50945050505050600060405180830381600087803b15801562003fdc57600080fd5b505af115801562003ff1573d6000803e3d6000fd5b505050506040513d6000823e3d601f19601f8201168201806040525060208110156200401c57600080fd5b8101908080516401000000008111156200403557600080fd5b828101905060208101848111156200404c57600080fd5b81518560018202830111640100000000821117156200406a57600080fd5b50509291905050509250620040946200408e6000856200455190919063ffffffff16565b620045cb565b90505080925081935050508a600160038110620040ad57fe5b6020020151620040d2620040cc6000856200455190919063ffffffff16565b6200460e565b6020015114620040e157600080fd5b8b600560068110620040ef57fe5b602002015173ffffffffffffffffffffffffffffffffffffffff16631f2ac16a6200412f620041296000866200455190919063ffffffff16565b6200460e565b602001513060018c6040518563ffffffff1660e01b8152600401808581526020018473ffffffffffffffffffffffffffffffffffffffff1673ffffffffffffffffffffffffffffffffffffffff1681526020018315151515815260200180602001828103825283818151815260200191508051906020019080838360005b83811015620041ca578082015181840152602081019050620041ad565b50505050905090810190601f168015620041f85780820380516001836020036101000a031916815260200191505b5095505050505050600060405180830381600087803b1580156200421b57600080fd5b505af115801562004230573d6000803e3d6000fd5b505050508b6005600681106200424257fe5b602002015173ffffffffffffffffffffffffffffffffffffffff1663cdfea90e62010101856040518363ffffffff1660e01b8152600401808362ffffff1662ffffff16815260200180602001828103825283818151815260200191508051906020019080838360005b83811015620042c8578082015181840152602081019050620042ab565b50505050905090810190601f168015620042f65780820380516001836020036101000a031916815260200191505b509350505050600060405180830381600087803b1580156200431757600080fd5b505af11580156200432c573d6000803e3d6000fd5b5050505060008060009054906101000a900473ffffffffffffffffffffffffffffffffffffffff1673ffffffffffffffffffffffffffffffffffffffff166323b872dd8e6000600681106200437d57fe5b60200201518f6003600681106200439057fe5b60200201518e600160048110620043a357fe5b60200201516040518463ffffffff1660e01b8152600401808473ffffffffffffffffffffffffffffffffffffffff1673ffffffffffffffffffffffffffffffffffffffff1681526020018373ffffffffffffffffffffffffffffffffffffffff1673ffffffffffffffffffffffffffffffffffffffff1681526020018281526020019350505050602060405180830381600087803b1580156200444557600080fd5b505af11580156200445a573d6000803e3d6000fd5b505050506040513d60208110156200447157600080fd5b81019080805190602001909291905050509050806200448f57600080fd5b8473ffffffffffffffffffffffffffffffffffffffff168d600360068110620044b457fe5b602002015173ffffffffffffffffffffffffffffffffffffffff167f34a1b8d5218705f38ed6a2c0011d3b62159ec9febbc7840dd5c06d7016556c226010546040518080602001838152602001828103825260068152602001807f73746174757300000000000000000000000000000000000000000000000000008152506020019250505060405180910390a35050505050505050505050505050565b60606000602084015183109050836020840260408601015101915080620045c4576040517f08c379a000000000000000000000000000000000000000000000000000000000815260040180806020018281038252602281526020018062005a576022913960400191505060405180910390fd5b5092915050565b60608060008060208501518501935060408501518501925073ffffffffffffffffffffffffffffffffffffffff6060860151169150608085015190509193509193565b6200461862004b6e565b600080620046268462004a1c565b509150915060405180604001604052808373ffffffffffffffffffffffffffffffffffffffff1681526020018281525092505050919050565b6001600a60008473ffffffffffffffffffffffffffffffffffffffff1673ffffffffffffffffffffffffffffffffffffffff16815260200190815260200160002060008282540192505081905550600a60008373ffffffffffffffffffffffffffffffffffffffff1673ffffffffffffffffffffffffffffffffffffffff16815260200190815260200160002054600860008473ffffffffffffffffffffffffffffffffffffffff1673ffffffffffffffffffffffffffffffffffffffff16815260200190815260200160002060008373ffffffffffffffffffffffffffffffffffffffff1673ffffffffffffffffffffffffffffffffffffffff1681526020019081526020016000208190555080600660008473ffffffffffffffffffffffffffffffffffffffff1673ffffffffffffffffffffffffffffffffffffffff1681526020019081526020016000206000600a60008673ffffffffffffffffffffffffffffffffffffffff1673ffffffffffffffffffffffffffffffffffffffff16815260200190815260200160002054815260200190815260200160002060006101000a81548173ffffffffffffffffffffffffffffffffffffffff021916908373ffffffffffffffffffffffffffffffffffffffff1602179055506001600b60008573ffffffffffffffffffffffffffffffffffffffff1673ffffffffffffffffffffffffffffffffffffffff16815260200190815260200160002060008282540192505081905550600b60008473ffffffffffffffffffffffffffffffffffffffff1673ffffffffffffffffffffffffffffffffffffffff16815260200190815260200160002054600960008573ffffffffffffffffffffffffffffffffffffffff1673ffffffffffffffffffffffffffffffffffffffff16815260200190815260200160002060008373ffffffffffffffffffffffffffffffffffffffff1673ffffffffffffffffffffffffffffffffffffffff1681526020019081526020016000208190555080600760008573ffffffffffffffffffffffffffffffffffffffff1673ffffffffffffffffffffffffffffffffffffffff1681526020019081526020016000206000600b60008773ffffffffffffffffffffffffffffffffffffffff1673ffffffffffffffffffffffffffffffffffffffff16815260200190815260200160002054815260200190815260200160002060006101000a81548173ffffffffffffffffffffffffffffffffffffffff021916908373ffffffffffffffffffffffffffffffffffffffff160217905550505050565b600080606073ffffffffffffffffffffffffffffffffffffffff6040850151169250606084015191506080840190509193909250565b828054600181600116156101000203166002900490600052602060002090601f016020900481019282601f1062004a9557805160ff191683800117855562004ac6565b8280016001018555821562004ac6579182015b8281111562004ac557825182559160200191906001019062004aa8565b5b50905062004ad5919062004ba1565b5090565b828054600181600116156101000203166002900490600052602060002090601f016020900481019282601f1062004b1c57805160ff191683800117855562004b4d565b8280016001018555821562004b4d579182015b8281111562004b4c57825182559160200191906001019062004b2f565b5b50905062004b5c919062004ba1565b5090565b610e8d8062004bca83390190565b6040518060400160405280600073ffffffffffffffffffffffffffffffffffffffff168152602001600080191681525090565b62004bc691905b8082111562004bc257600081600090555060010162004ba8565b5090565b9056fe60806040523480156200001157600080fd5b506040516101c08062000e8d83398101806040526101c08110156200003557600080fd5b8101908091908260e00191908260600191905050806000600481106200005757fe5b6020020151600081905550826000600781106200007057fe5b6020020151600160006101000a81548173ffffffffffffffffffffffffffffffffffffffff021916908373ffffffffffffffffffffffffffffffffffffffff16021790555082600160078110620000c357fe5b6020020151600260006101000a81548173ffffffffffffffffffffffffffffffffffffffff021916908373ffffffffffffffffffffffffffffffffffffffff160217905550826002600781106200011657fe5b6020020151600360006101000a81548173ffffffffffffffffffffffffffffffffffffffff021916908373ffffffffffffffffffffffffffffffffffffffff160217905550826003600781106200016957fe5b6020020151600460006101000a81548173ffffffffffffffffffffffffffffffffffffffff021916908373ffffffffffffffffffffffffffffffffffffffff16021790555082600460078110620001bc57fe5b6020020151600560006101000a81548173ffffffffffffffffffffffffffffffffffffffff021916908373ffffffffffffffffffffffffffffffffffffffff16021790555042600681905550806003600481106200021657fe5b60200201514201600781905550826005600781106200023157fe5b6020020151600860006101000a81548173ffffffffffffffffffffffffffffffffffffffff021916908373ffffffffffffffffffffffffffffffffffffffff160217905550826006600781106200028457fe5b6020020151600960006101000a81548173ffffffffffffffffffffffffffffffffffffffff021916908373ffffffffffffffffffffffffffffffffffffffff16021790555081600060038110620002d757fe5b6020020151600a8190555081600160038110620002f057fe5b6020020151600b81905550816002600381106200030957fe5b6020020151600c81905550806001600481106200032257fe5b6020020151600e81905550806002600481106200033b57fe5b6020020151600f819055506200039183836040518060400160405280856001600481106200036557fe5b60200201518152602001856002600481106200037d57fe5b6020020151815250620003a060201b60201c565b60108190555050505062000682565b60003084600060078110620003b157fe5b602002015185600160078110620003c457fe5b602002015186600260078110620003d757fe5b602002015187600360078110620003ea57fe5b602002015188600460078110620003fd57fe5b6020020151896005600781106200041057fe5b60200201518a6006600781106200042357fe5b60200201518a6000600381106200043657fe5b60200201518b6001600381106200044957fe5b60200201518c6002600381106200045c57fe5b60200201518c6000600281106200046f57fe5b60200201518d6001600281106200048257fe5b6020020151604051602001808e73ffffffffffffffffffffffffffffffffffffffff1673ffffffffffffffffffffffffffffffffffffffff1660601b81526014018d73ffffffffffffffffffffffffffffffffffffffff1673ffffffffffffffffffffffffffffffffffffffff1660601b81526014018c73ffffffffffffffffffffffffffffffffffffffff1673ffffffffffffffffffffffffffffffffffffffff1660601b81526014018b73ffffffffffffffffffffffffffffffffffffffff1673ffffffffffffffffffffffffffffffffffffffff1660601b81526014018a73ffffffffffffffffffffffffffffffffffffffff1673ffffffffffffffffffffffffffffffffffffffff1660601b81526014018973ffffffffffffffffffffffffffffffffffffffff1673ffffffffffffffffffffffffffffffffffffffff1660601b81526014018873ffffffffffffffffffffffffffffffffffffffff1673ffffffffffffffffffffffffffffffffffffffff1660601b81526014018773ffffffffffffffffffffffffffffffffffffffff1673ffffffffffffffffffffffffffffffffffffffff1660601b81526014018681526020018581526020018481526020018381526020018281526020019d50505050505050505050505050506040516020818303038152906040528051906020012090509392505050565b6107fb80620006926000396000f3fe608060405234801561001057600080fd5b50600436106100b45760003560e01c8063917903b011610071578063917903b0146102b35780639861f3e5146102fd578063a1fc17fa14610347578063c107f9ac14610365578063c6943a3614610383578063d13319c4146103cd576100b4565b806301c43e95146100b95780631cb0c3e7146101b5578063309f27a3146101ff5780634e69d5601461024957806369ba1a75146102675780638622a68914610295575b600080fd5b61019f60048036036101808110156100d057600080fd5b810190808060e001906007806020026040519081016040528092919082600760200280828437600081840152601f19601f820116905080830192505050505050919291929080606001906003806020026040519081016040528092919082600360200280828437600081840152601f19601f820116905080830192505050505050919291929080604001906002806020026040519081016040528092919082600260200280828437600081840152601f19601f82011690508083019250505050505091929192905050506103eb565b6040518082815260200191505060405180910390f35b6101bd6106c1565b604051808273ffffffffffffffffffffffffffffffffffffffff1673ffffffffffffffffffffffffffffffffffffffff16815260200191505060405180910390f35b6102076106eb565b604051808273ffffffffffffffffffffffffffffffffffffffff1673ffffffffffffffffffffffffffffffffffffffff16815260200191505060405180910390f35b610251610715565b6040518082815260200191505060405180910390f35b6102936004803603602081101561027d57600080fd5b810190808035906020019092919050505061071f565b005b61029d610729565b6040518082815260200191505060405180910390f35b6102bb610733565b604051808273ffffffffffffffffffffffffffffffffffffffff1673ffffffffffffffffffffffffffffffffffffffff16815260200191505060405180910390f35b61030561075d565b604051808273ffffffffffffffffffffffffffffffffffffffff1673ffffffffffffffffffffffffffffffffffffffff16815260200191505060405180910390f35b61034f610787565b6040518082815260200191505060405180910390f35b61036d610791565b6040518082815260200191505060405180910390f35b61038b61079b565b604051808273ffffffffffffffffffffffffffffffffffffffff1673ffffffffffffffffffffffffffffffffffffffff16815260200191505060405180910390f35b6103d56107c5565b6040518082815260200191505060405180910390f35b600030846000600781106103fb57fe5b60200201518560016007811061040d57fe5b60200201518660026007811061041f57fe5b60200201518760036007811061043157fe5b60200201518860046007811061044357fe5b60200201518960056007811061045557fe5b60200201518a60066007811061046757fe5b60200201518a60006003811061047957fe5b60200201518b60016003811061048b57fe5b60200201518c60026003811061049d57fe5b60200201518c6000600281106104af57fe5b60200201518d6001600281106104c157fe5b6020020151604051602001808e73ffffffffffffffffffffffffffffffffffffffff1673ffffffffffffffffffffffffffffffffffffffff1660601b81526014018d73ffffffffffffffffffffffffffffffffffffffff1673ffffffffffffffffffffffffffffffffffffffff1660601b81526014018c73ffffffffffffffffffffffffffffffffffffffff1673ffffffffffffffffffffffffffffffffffffffff1660601b81526014018b73ffffffffffffffffffffffffffffffffffffffff1673ffffffffffffffffffffffffffffffffffffffff1660601b81526014018a73ffffffffffffffffffffffffffffffffffffffff1673ffffffffffffffffffffffffffffffffffffffff1660601b81526014018973ffffffffffffffffffffffffffffffffffffffff1673ffffffffffffffffffffffffffffffffffffffff1660601b81526014018873ffffffffffffffffffffffffffffffffffffffff1673ffffffffffffffffffffffffffffffffffffffff1660601b81526014018773ffffffffffffffffffffffffffffffffffffffff1673ffffffffffffffffffffffffffffffffffffffff1660601b81526014018681526020018581526020018481526020018381526020018281526020019d50505050505050505050505050506040516020818303038152906040528051906020012090509392505050565b6000600360009054906101000a900473ffffffffffffffffffffffffffffffffffffffff16905090565b6000600960009054906101000a900473ffffffffffffffffffffffffffffffffffffffff16905090565b6000600d54905090565b80600d8190555050565b6000600754905090565b6000600560009054906101000a900473ffffffffffffffffffffffffffffffffffffffff16905090565b6000600260009054906101000a900473ffffffffffffffffffffffffffffffffffffffff16905090565b6000600a54905090565b6000600c54905090565b6000600860009054906101000a900473ffffffffffffffffffffffffffffffffffffffff16905090565b600060105490509056fea165627a7a7230582079ad6c6a481bb0564c0abed5c7c3376fdcab405428baaebf0caec8bbc52d84300029415a54454320617272617920696e646578206973206f7574206f6620626f756e6473a165627a7a7230582036fd371657b253bbd21ceff20cf059c22b61fa9a316a7e7b174f565409129e710029",
    "source": "pragma solidity ^0.5.7;\n\nimport \"./ZkERC20.sol\";\n// import \"./IERC20.sol\";\nimport \"./AZTEC/libs/NoteUtils.sol\";\nimport \"./Position.sol\";\nimport \"./Kernel.sol\";\n\ncontract ZkLoan {\n    using NoteUtils for bytes;\n\n    struct Note{\n        address owner;\n        bytes32 noteHash;\n    }\n\n    event BorrowerAccessRequested(bytes32 indexed kernelHash, address indexed borrower, bytes indexed pubKey);\n    event BorrowerAccessGranted(bytes32 indexed kernelHash, address indexed borrower);\n    // Events of the protocol.\n    event ProtocolParameterUpdateNotification(string _notification_key, address indexed _address, uint256 _notification_value);\n    event PositionUpdateNotification(address indexed _wrangler, address indexed _position_address, string _notification_key, uint256 _notification_value);\n\n    // Variables of the protocol.\n    address public protocol_token_address;\n    address public owner;\n    // kernel\n    address kernel_address;\n\n    // all positions\n    // mapping(bytes32 => address) public positions;\n    uint256 public last_position_index;\n    mapping(uint256 => address) public position_index;\n    uint256 public position_threshold;\n    mapping(address => mapping(uint256 => address)) public borrow_positions;\n    mapping(address => mapping(uint256 => address)) public lend_positions;\n    mapping(address => mapping(address => uint256)) borrow_position_index;\n    mapping(address => mapping(address => uint256)) lend_position_index;\n    mapping(address => uint256) public borrow_positions_count;\n    mapping(address => uint256) public lend_positions_count;\n\n    // // wrangler\n    mapping(address => bool) public wranglers;\n    mapping(address => mapping(address => uint256)) public wrangler_nonces;\n\n    // // tokens\n    mapping(address => bool) public supported_tokens;\n\n    // // nonreentrant locks for positions, inspired from https//github.com/ethereum/vyper/issues/1204\n    // mapping(bytes32 => bool) nonreentrant_locks;\n\n    // // Mapping to store approvals of borrowers for loan notional view requests\n    mapping(bytes32 => mapping(address => bytes)) borrowerApprovals;\n\n    // constants\n    // uint256 public SECONDS_PER_DAY;\n    uint256 public POSITION_STATUS_OPEN = 1;\n    uint256 public POSITION_STATUS_CLOSED = 2;\n    uint256 public POSITION_STATUS_LIQUIDATED = 3;\n    uint256 public POSITION_TOPPED_UP = 1;\n    // address public ZERO_ADDRESS = address(0);\n    uint24 constant JOIN_SPLIT_PROOF = 65793;\n\n\n\n    constructor(address _protocol_token_address, address _kernel_address) public {\n        owner = msg.sender;\n        protocol_token_address = _protocol_token_address;\n        kernel_address = _kernel_address;\n        // position_threshold = 10;\n        // // SECONDS_PER_DAY = 86400;\n        // POSITION_STATUS_OPEN = 1;\n        // POSITION_STATUS_CLOSED = 2;\n        // POSITION_STATUS_LIQUIDATED = 3;\n        // POSITION_TOPPED_UP = 1;\n    }\n\n\n    function requestAccess(bytes32 _kernelHash, bytes memory pubKey) public {\n        borrowerApprovals[_kernelHash][msg.sender] = '0x';\n        emit BorrowerAccessRequested(_kernelHash, msg.sender, pubKey);\n    }\n\n    function approveAccess(bytes32 _kernelHash, address _borrower, bytes memory _sharedSecret) public {\n        borrowerApprovals[_kernelHash][_borrower] = _sharedSecret;\n        emit BorrowerAccessGranted(_kernelHash, _borrower);\n    }\n\n    // // function can_borrow(address _address) public view returns (bool) {\n    // //     return  borrow_positions_count[_address] < position_threshold;\n    // // }\n\n    // // function can_lend(address _address) public view returns (bool) {\n    // //     return  lend_positions_count[_address] < position_threshold;\n    // // }\n\n    // // function filled_or_cancelled_loan_amount(bytes32 _kernel_hash) public view returns (uint256) {\n    // //     return kernels_filled[_kernel_hash] + kernels_cancelled[_kernel_hash];\n    // // }\n\n    // function position_counts(address _address) public view returns (uint256, uint256) {\n    //     return ( borrow_positions_count[_address],  lend_positions_count[_address]);\n    // }\n\n\n    // // owed_value() function to be implemented offchain\n\n    // // Not to implement escape_hatch() function\n\n    // function set_position_threshold(uint256 _value) public returns (bool) {\n    //     require (msg.sender == owner, \"Sender must be owner\");\n    //     position_threshold = _value;\n    //     emit ProtocolParameterUpdateNotification(\"position_threshold\", address(0), _value);\n    //     return true;\n    // }\n\n    // function set_wrangler_status(address _address, bool _is_active) public returns (bool) {\n    //     require(msg.sender == owner, \"Sender must be owner\");\n    //     wranglers[_address] = _is_active;\n    //     emit ProtocolParameterUpdateNotification(\"wrangler_status\", _address, _is_active?1:0);\n    //     return true;\n    // }\n\n    function set_token_support(address _address, bool _is_active) public returns (bool) {\n        require (msg.sender == owner, \"Sender must be owner\");\n        supported_tokens[_address] = _is_active;\n        emit ProtocolParameterUpdateNotification(\"token_support\", _address, _is_active?1:0);\n        return true;\n    }\n\n    // function lock_position(bytes32 _position_hash) internal {\n    //     require (nonreentrant_locks[_position_hash] == false, \"Position is already locked\");\n    //     nonreentrant_locks[_position_hash] = true;\n    // }\n\n    // function unlock_position(bytes32 _position_hash) internal {\n    //     require  (nonreentrant_locks[_position_hash] == true, \"Position is already unlocked\");\n    //     nonreentrant_locks[_position_hash] = false;\n    // }\n\n    function _noteCoderToStruct(bytes memory note) internal pure returns (Note memory codedNote) {\n        (address _owner, bytes32 noteHash,) = note.extractNote();\n        return Note(_owner, noteHash);\n    }\n\n    function record_position(address _lender, address _borrower, address _position_address) internal{\n        // require (can_borrow(_borrower), \"Borrower address cannot borrow\");\n        // require (can_lend(_lender), \"Lender address canot lend\");\n        // borrow position\n        borrow_positions_count[_borrower] += 1;\n        borrow_position_index[_borrower][_position_address] = borrow_positions_count[_borrower];\n        borrow_positions[_borrower][borrow_positions_count[_borrower]] = _position_address;\n        // lend position\n        lend_positions_count[_lender] += 1;\n        lend_position_index[_lender][_position_address] = lend_positions_count[_lender];\n        lend_positions[_lender][lend_positions_count[_lender]] = _position_address;\n    }\n\n    function remove_position(address _position_address) public {\n        address _borrower = Position(_position_address).getBorrower();\n        address _lender = Position(_position_address).getLender();\n        // update borrow position indices\n        uint256 _current_position_index = borrow_position_index[_borrower][_position_address];\n        uint256 _last_position_index = borrow_positions_count[_borrower];\n        address _last_position_address = borrow_positions[_borrower][_last_position_index];\n        borrow_positions[_borrower][_current_position_index] = borrow_positions[_borrower][_last_position_index];\n        borrow_positions[_borrower][_last_position_index] = address(0);\n        borrow_position_index[_borrower][_position_address] = 0;\n        borrow_position_index[_borrower][_last_position_address] = _current_position_index;\n        borrow_positions_count[_borrower] -= 1;\n        // update lend position indices\n        _current_position_index = lend_position_index[_lender][_position_address];\n        _last_position_index = lend_positions_count[_lender];\n        _last_position_address = lend_positions[_lender][_last_position_index];\n        lend_positions[_lender][_current_position_index] = lend_positions[_lender][_last_position_index];\n        lend_positions[_lender][_last_position_index] = address(0);\n        lend_position_index[_lender][_position_address] = 0;\n        lend_position_index[_lender][_last_position_address] = _current_position_index;\n        lend_positions_count[_lender] -= 1;\n    }\n\n    function open_position(\n        address _kernel_creator,\n        address[6] memory _addresses,\n        bytes32[3] memory _noteHashes,\n        uint256[4] memory _intValues, // nonce, monitoringFee, positionExpireDuration, approvalExpiresAt\n        // uint256 _nonce,\n        // uint256 _monitoring_fee,\n        // uint256 _positionExpireDuration,\n        // uint256 _approvalExpiresAt,\n        bytes memory lendProof,\n        bytes memory lendSign,\n        bytes memory collateralProof,\n        bytes memory collateralSign\n    ) internal {\n        Position _new_position = new Position(\n            [_kernel_creator, _addresses[0], _addresses[1], _addresses[2], _addresses[3], _addresses[4], _addresses[5]],\n            _noteHashes,\n            [last_position_index, _intValues[0], _intValues[1], _intValues[3]]\n        );\n\n        address _new_position_address = address(_new_position);\n\n        // _new_position_hash = Position(_new_position).getHash();\n        // Position memory _new_position = Position({\n        //     index: last_position_index,\n        //     kernel_creator: _kernel_creator,\n        //     lender: _addresses[0],\n        //     borrower: _addresses[1],\n        //     relayer: _addresses[2],\n        //     wrangler: _addresses[3],\n        //     created_at: block.timestamp,\n        //     updated_at: block.timestamp,\n        //     expires_at: block.timestamp + _intValues[2],\n        //     borrow_currency_address: _addresses[4],\n        //     lend_currency_address: _addresses[5],\n        //     borrow_currency_noteHash: _noteHashes[0],\n        //     lend_currency_filled_noteHash: _noteHashes[1], // Note to be transferred from lender to borrower\n        //     lend_currency_owed_noteHash: _noteHashes[2],    // Dummy Note to be repayed by borrower to lender\n        //     status: POSITION_STATUS_OPEN,\n        //     nonce: _intValues[0],\n        //     monitoring_fee: _intValues[1],\n        //     hash: position_hash([_kernel_creator, _addresses[0], _addresses[1], _addresses[2],\n        //     _addresses[3], _addresses[4], _addresses[5]], _noteHashes, [_intValues[0], _intValues[1]])\n        // });\n\n        // lock position_non_reentrant before loan creation\n        // lock_position(_new_position.hash);\n        // validate wrangler's activation status\n        require(wranglers[_addresses[3]], \"Wrangler not active\");\n        // validate wrangler's approval expiry\n        require(_intValues[3] > block.timestamp, \"Wrangler's approval expired\");\n        // validate wrangler's nonce\n        require(_intValues[0] == wrangler_nonces[_addresses[3]][_kernel_creator] + 1, \"Invalid nonce\");\n        // increment wrangler's nonce for kernel creator\n        wrangler_nonces[_addresses[3]][_kernel_creator] += 1;\n        // validate wrangler's signature\n        // require (is_signer(_new_position.wrangler, _new_position.hash, _sig_data), \"Incorrect signatures\");\n        // update position index\n        position_index[last_position_index] = _new_position_address;\n        last_position_index += 1;\n        // positions[_new_position_hash] = _new_position;\n        // record position\n        record_position(_addresses[0], _addresses[1], _new_position_address);\n\n        // Transfer collateral from borrower to contract\n        (bytes memory _proofOutputs) = ACE(ZkERC20(_addresses[4]).getACE()).validateProof(JOIN_SPLIT_PROOF, address(this), collateralProof);\n        (bytes memory _proofInputNotes, bytes memory _proofOutputNotes, ,) = _proofOutputs.get(0).extractProofOutput();\n        require(_noteCoderToStruct(_proofOutputNotes.get(0)).noteHash == _noteHashes[0]);\n        ZkERC20(_addresses[4]).confidentialApprove(_noteCoderToStruct(_proofInputNotes.get(0)).noteHash, address(this), true, collateralSign);\n        ZkERC20(_addresses[4]).confidentialTransferFrom(JOIN_SPLIT_PROOF, _proofOutputs);\n\n        // Transfer lend tokens from lender to borrower\n        (_proofOutputs) = ACE(ZkERC20(_addresses[5]).getACE()).validateProof(JOIN_SPLIT_PROOF, address(this), lendProof);\n        (_proofInputNotes, _proofOutputNotes, ,) = _proofOutputs.get(0).extractProofOutput();\n        require(_noteCoderToStruct(_proofInputNotes.get(0)).noteHash == _noteHashes[1]);\n        ZkERC20(_addresses[5]).confidentialApprove(_noteCoderToStruct(_proofInputNotes.get(0)).noteHash, address(this), true, lendSign);\n        ZkERC20(_addresses[5]).confidentialTransferFrom(JOIN_SPLIT_PROOF, _proofOutputs);\n\n        // transfer monitoring_fee from lender to wrangler\n        bool token_transfer = ERC20( protocol_token_address).transferFrom(\n            _addresses[0],\n            _addresses[3],\n            _intValues[1]\n        );\n        require(token_transfer);\n        // notify wrangler that a position has been opened\n        emit PositionUpdateNotification(_addresses[3], _new_position_address, \"status\",  POSITION_STATUS_OPEN);\n        // unlock position_non_reentrant after loan creation\n        // unlock_position(_new_position.hash);\n    }\n\n    function close_position(address _position_address, bytes memory repayProof, bytes memory repaySign, bytes memory returnCollateralProof) public returns (bool){\n        Position existing_position = Position(_position_address);\n        // confirm sender is borrower\n        require(msg.sender == existing_position.getBorrower());\n        // confirm position has not expired yet\n        require(existing_position.expiresAt() >= block.timestamp);\n        // confirm position is still active\n        require(existing_position.getStatus() ==  POSITION_STATUS_OPEN);\n        // lock position_non_reentrant before closure\n        // lock_position(_position_hash);\n        // perform closure\n        existing_position.setStatus(POSITION_STATUS_CLOSED);\n        // positions[_position_hash] = existing_position;\n        remove_position(_position_address);\n\n        // transfer lend_currency_owed_value from borrower to lender\n        (bytes memory _proofOutputs) = ACE(ZkERC20(existing_position.getLendCurrencyAddress()).getACE()).validateProof(JOIN_SPLIT_PROOF, address(this), repayProof);\n        (bytes memory _proofInputNotes, bytes memory _proofOutputNotes, ,) = _proofOutputs.get(0).extractProofOutput();\n        require(_noteCoderToStruct(_proofInputNotes.get(0)).noteHash == existing_position.getLendCurrencyOwedNotehash());\n        ZkERC20(existing_position.getLendCurrencyAddress()).confidentialApprove(_noteCoderToStruct(_proofInputNotes.get(0)).noteHash, address(this), true, repaySign);\n        ZkERC20(existing_position.getLendCurrencyAddress()).confidentialTransferFrom(JOIN_SPLIT_PROOF, _proofOutputs);\n\n\n        // transfer collateral back to borrower\n        (_proofOutputs) = ACE(ZkERC20(existing_position.getBorrowCurrencyAddress()).getACE()).validateProof(JOIN_SPLIT_PROOF, address(this), returnCollateralProof);\n        (_proofInputNotes, _proofOutputNotes, ,) = _proofOutputs.get(0).extractProofOutput();\n        require(_noteCoderToStruct(_proofInputNotes.get(0)).noteHash == existing_position.getBorrowCurrencyNotehash());\n        ZkERC20(existing_position.getBorrowCurrencyAddress()).confidentialApprove(_noteCoderToStruct(_proofInputNotes.get(0)).noteHash, address(this), true, '');\n        ZkERC20(existing_position.getBorrowCurrencyAddress()).confidentialTransferFrom(JOIN_SPLIT_PROOF, _proofOutputs);\n\n\n        // Notify wrangler that a position has been closed\n        emit PositionUpdateNotification(existing_position.getWrangler(), address(existing_position), \"status\",  POSITION_STATUS_CLOSED);\n        // unlock position_non_reentrant after closure\n        // unlock_position(_position_hash);\n\n        return true;\n    }\n\n    function fill_kernel(\n        address[6] memory _addresses,\n        // _addresses lender, borrower, relayer, wrangler, collateralToken, loanToken\n        uint256[6] memory _intValues,\n        // _intValues monitoringFeeLST, nonce, kernelDailyInterestRate, kernelExpiresAt, WranglerExpiresAt, positionDurationInSeconds\n        bytes32[3] memory _noteHashes,\n        // _noteHashes lendCurrencyNoteHash, borrowCurrencyNoteHash (expected collateral), lendCurrencyOwedNoteHash\n        // uint256 _nonce,\n        // uint256 _kernel_daily_interest_rate,\n        bool _is_creator_lender,\n        // uint256[2] memory _timestamps,\n        // kernel_expires_at, wrangler_approval_expires_at\n        // uint256 _position_duration_in_seconds,\n        // loanDuration\n        bytes32 _kernel_creator_salt,\n        // bytes memory _sig_data_kernel_creator,\n        // bytes memory _sig_data_wrangler,\n        bytes memory lendProof,\n        bytes memory lendSign,\n        bytes memory collateralProof,\n        bytes memory collateralSign\n        // v, r, s of kernel_creator and wrangler\n        ) public returns (bool){\n\n            // validate _collateralToken is a contract address\n            require(supported_tokens[_addresses[4]]);\n            // validate _loanToken is a contract address\n            require(supported_tokens[_addresses[5]]);\n            Kernel(kernel_address).fill(_addresses, _intValues, _noteHashes, _is_creator_lender, _kernel_creator_salt);\n            // validate kernel_creator's signature\n            // require(is_signer(_kernel_creator, _k_hash, _sig_data_kernel_creator));\n            // validate loan amount to be filled\n            // require(_kernel.lend_currency_offered_value - filled_or_cancelled_loan_amount(_k_hash) >=_values[6]);\n            // fill offer with lending currency\n            \n            \n            // open position\n            \n            // open_position(\n            //     _kernel_creator, _addresses, _intValues,\n            //     _nonce, _kernel_daily_interest_rate,\n            //     _position_duration_in_seconds, _timestamps[1], _sig_data_wrangler\n            // );\n            open_position(\n                _is_creator_lender ? _addresses[0]: _addresses[1],\n                _addresses,\n                _noteHashes,\n                [_intValues[1], _intValues[0], _intValues[5], _intValues[4]],\n                lendProof, lendSign,\n                collateralProof, collateralSign\n            );\n\n            // transfer relayerFeeLST from kernel creator to relayer\n            // if((_kernel.relayer != address(0)) && (_kernel.relayer_fee > 0)){\n            //     bool token_transfer = ERC20( protocol_token_address).transferFrom(\n            //         _kernel_creator,\n            //         _kernel.relayer,\n            //         _kernel.relayer_fee\n            //     );\n            //     require(token_transfer);\n            // }\n            return true;\n    }\n\n    function cancel_kernel(\n        address[6] memory _addresses, bytes32[2] memory _noteHashes, uint256[5] memory _intValues, bytes32 _kernel_creator_salt) public returns (bool){\n            Kernel(kernel_address).cancel(_addresses, _noteHashes, _intValues, _kernel_creator_salt);\n\n            return true;\n    }\n}",
    "sourcePath": "/home/tezansahu/Tezan/Github Repos/LendZ/contracts/ZkLoan.sol",
    "compiler": {
        "name": "solc",
        "version": "0.5.7+commit.6da8b019.Emscripten.clang"
    },
    "schemaVersion": "3.0.11",
    "updatedAt": "2019-08-03T15:31:50.617Z",
    "devdoc": {
        "methods": {}
    },
    "userdoc": {
        "methods": {}
    }
}